:100000000C9441040C9472040C9472040C947204C9
:100010000C9472040C9472040C9472040C94720488
:100020000C9472040C9472040C9472040C94720478
:100030000C9472040C9472040C9472040C94720468
:100040000C9472040C94CB1E0C9472040C947204E5
:100050000C9472040C9472040C9472040C94171C8B
:100060000C9472040C94EB1C0C94C11C0C94720440
:100070000C9472040C9472040C9472040C94720428
:100080000C949D1E0C9472040C9472040C947204D3
:100090000C9472040C9472040C9472040C94211D40
:1000A0000C9472040C9472040C946F1E0C947204E1
:1000B0000C9472040C9472040C9472040C94411EFF
:1000C0000C9472040C9472040C9472040C947204D8
:1000D0000C9472040C9472040C948B1C0C94611C90
:1000E0000C9472040C94DD080C94A5070C94830501
:1000F0000C94BB160C94D20E0C94C10B0C942707D5
:100100000C9487050C9479050C942C070C944007EB
:100110000C94A1080C9486100C948B050C945E052D
:100120000C941F070C9495050C94FF080C94931ADB
:100130000C945E0D0C9456050C946B050C946D0F8D
:100140000C946E070C9491070C940B150C943E1FA5
:100150000C9478070C9490050C94B9070C94410901
:100160000C94DE0B0C9434140C9487070C946F05DC
:100170000C9452070C9465050C9436070C94920E5F
:100180000C944A070C940E160C94F1080C94640716
:100190000C9450050C9462050C9493140C94510E1D
:1001A0000C947D050C945A050C9462130C94AF07C3
:1001B0000C9475050C9496080C945A070C949A08A4
:1001C0000C949E080C94CE080C941C110C94BA1636
:1001D0000C948E090C94E00D0C943B0F0C9491053B
:1001E0000C949B070C946F0D0C945F0B00000000A7
:1001F000003E5B4F5B3E3E6B4F6B3E1C3E7C3E1CAD
:10020000183C7E3C181C577D571C1C5E7F5E1C00F2
:10021000183C1800FFE7C3E7FF0018241800FFE7A9
:10022000DBE7FF30483A060E2629792926407F056C
:100230000507407F05253F5A3CE73C5A7F3E1C1C82
:1002400008081C1C3E7F14227F22145F5F005F5F42
:1002500006097F017F006689956A6060606060942E
:10026000A2FFA29408047E040810207E2010080833
:100270002A1C08081C2A08081E101010100C1E0C3E
:100280001E0C30383E3830060E3E0E0600000000D0
:100290000000005F00000007000700147F147F14B7
:1002A000242A7F2A122313086462364956205000FC
:1002B00008070300001C2241000041221C002A1CE8
:1002C0007F1C2A08083E08080080703000080808D3
:1002D0000808000060600020100804023E514945F3
:1002E0003E00427F400072494949462141494D3311
:1002F0001814127F1027454545393C4A4949314178
:10030000211109073649494936464949291E000045
:10031000140000004034000000081422411414149A
:100320001414004122140802015909063E415D5986
:100330004E7C1211127C7F494949363E414141228F
:100340007F4141413E7F494949417F090909013EB9
:10035000414151737F0808087F00417F41002040E0
:10036000413F017F081422417F404040407F021CF2
:10037000027F7F0408107F3E4141413E7F09090909
:10038000063E4151215E7F091929462649494932D5
:1003900003017F01033F4040403F1F2040201F3F9B
:1003A0004038403F63140814630304780403615920
:1003B000494D43007F414141020408102000414162
:1003C000417F04020102044040404040000307080E
:1003D0000020545478407F2844443838444444280A
:1003E000384444287F385454541800087E090218B1
:1003F000A4A49C787F0804047800447D4000204039
:10040000403D007F1028440000417F40007C04787C
:1004100004787C080404783844444438FC182424C4
:100420001818242418FC7C08040408485454542444
:1004300004043F44243C4040207C1C2040201C3CC1
:100440004030403C44281028444C9090907C4464B8
:10045000544C44000836410000007700000041364B
:10046000080002010204023C2623263C1EA1A161D1
:10047000123A4040207A3854545559215555794103
:100480002254547842215554784020545579400CD8
:100490001E527212395555555939545454593955BB
:1004A0005454580000457C410002457D42000145FE
:1004B0007C407D1211127DF0282528F07C54554592
:1004C000002054547C547C0A097F493249494932FE
:1004D0003A4444443A324A4848303A4141217A3A0F
:1004E00042402078009DA0A07D3D4242423D3D40DB
:1004F00040403D3C24FF2424487E4943662B2FFC8A
:100500002F2BFF0929F620C0887E09032054547937
:10051000410000447D413048484A32384040227A08
:10052000007A0A0A727D0D19317D2629292F282685
:100530002929292630484D4020380808080808088D
:100540000808382F10C8ACBA2F102834FA00007BE6
:10055000000008142A142222142A140855005500F9
:1005600055AA55AA55AAFF55FF55FF000000FF00E8
:10057000101010FF00141414FF001010FF00FF10E3
:1005800010F010F0141414FC001414F700FF000015
:10059000FF00FF1414F404FC141417101F10101F94
:1005A000101F1414141F00101010F0000000001F82
:1005B000101010101F10101010F010000000FF108D
:1005C0001010101010101010FF10000000FF140089
:1005D00000FF00FF00001F10170000FC04F41414BB
:1005E0001710171414F404F40000FF00F714141487
:1005F00014141414F700F7141414171410101F1007
:100600001F141414F4141010F010F000001F101F29
:100610000000001F14000000FC140000F010F01097
:1006200010FF10FF141414FF141010101F0000000E
:1006300000F010FFFFFFFFFFF0F0F0F0F0FFFFFF12
:100640000000000000FFFF0F0F0F0F0F3844443869
:1006500044FC4A4A4A347E02020606027E027E02B8
:1006600063554941633844443C04407E201E2006C3
:10067000027E020299A5E7A5991C2A492A1C4C7200
:1006800001724C304A4D4D303048784830BC625A87
:10069000463D3E494949007E0101017E2A2A2A2A17
:1006A0002A44445F444440514A444040444A5140F3
:1006B0000000FF0103E080FF000008086B6B0836B4
:1006C00012362436060F090F060000181800000025
:1006D0001010003040FF0101001F01011E00191D14
:1006E0001712003C3C3C3C000000000004E01002FB
:1006F0001C07123732292D29252B3900010310E15F
:1007000010031D07062E2C292D2E2E373F00000228
:100710001013800A298064022A040000007F2B0441
:100720000000009F0F0180961180FFB103012C2D66
:10073000B203012C2DB306012C2D012C2DB4010781
:10074000C003A20284C101C5C2020A00C3028A2AF0
:10075000C4028AEEC5010E20003601C83A01050028
:10076000002100240027002A002D00300033000162
:10077000010000040107010A0100002000230026F7
:100780000029002C002F00320000010000030106A8
:1007900001090100000A0B02090C0D0E08070304F1
:1007A0000100000000000000000000000000000048
:1007B0000000000000000000000000000000001227
:1007C0001110000000000000000000000000000008
:1007D00000000000000000000001021020200808B6
:1007E0001020401020408002010201080402010193
:1007F000020408102040808040201008040201807C
:1008000004020180402010080402010804020101D2
:1008100002040810204080010204081020408000DB
:10082000002200250028002B002E00310034000299
:10083000010000050108010B010505050507050874
:10084000080808020202020A0A0808040404040153
:100850000101010101010103030303030303030475
:100860000707070C0C0C0C0C0C0C0C020202020605
:10087000060606060606060B0B0B0B0B0B0B0B00F6
:100880003E1F11241FBECFEFD1E2DEBFCDBF00E07F
:100890000CBF12E0A0E0B2E0E4EBF6E500E00BBF35
:1008A00002C007900D92A23CB107D9F726E0A2EC56
:1008B000B2E001C01D92A130B207E1F714E0C1E43B
:1008C000D4E000E006C021970109802FFE010E94BC
:1008D0002E2BC034D10780E00807A9F70E94FD2025
:1008E0000C94582B0C9400008F929F92AF92BF9261
:1008F000FF920F931F93CF93DF93F090FE052FE2AB
:100900002F1508F44CC02091000608E512E0021BE8
:10091000110927FD1395000F111F000F111F2091C2
:10092000FF05C8E8D0E0C21BD10927FDD395CC0F45
:10093000DD1FCC0FDD1F4E010D2E000CAA08BB08D9
:100940009801012E000C440B550B281939094A094E
:100950005B09DC010E94A62824EB30E040E050E077
:100960000E947C28820E931EA41EB51E8C169D0626
:100970002CF0E801801691060CF4E4012297CC0FCC
:10098000DD1F2FB7F8948F2D90E0FC01EE0FFF1FB5
:10099000E80FF91FE451FB4FD283C1832FBFDF91D2
:1009A000CF911F910F91FF90BF90AF909F908F902C
:1009B0000895FC01A089B18982E08C93A485B58556
:1009C0001C92A685B7858FEC8C93108EA489B5896F
:1009D00086E08C93A289B3898C9180618C93A289E3
:1009E000B3898C9188608C93A289B3898C9180683B
:1009F0008C930288F389E02D80818F7D8083089518
:100A00008091EF059091F0058230910538F0880FC4
:100A1000991F880F991F05970197F1F7089596E0A0
:100A2000899FD0011124A358BA4F90967C936E935E
:100A30005F9791E091969C939197E091EA05F091F0
:100A4000EB059091E905992339F0309751F0811128
:100A500008C0809199051994309719F05C968C9193
:100A6000FACF08958150823108F05AC0E82FF0E0A3
:100A70008827E25CFA4F8F4F0C942E2B5E0562059F
:100A8000500556055A05900565056B056F057505FA
:100A900079057D058305870590058B0591059505ED
:100AA000809180008F7780938000089580918000EE
:100AB0008F7DF9CF80918000877FF5CF84B58F77C8
:100AC00084BD089584B58F7DFBCF8091B0008F7772
:100AD0008093B00008958091B0008F7DF9CF809110
:100AE00090008F77809390000895809190008F7D83
:100AF000F9CF80919000877FF5CF8091A0008F770C
:100B00008093A00008958091A0008F7DF9CF8091FF
:100B1000A000877FF5CF809120018F7780932001FF
:100B20000895809120018F7DF9CF80912001877FEA
:100B3000F5CFCF93DF93282F30E0F901ED56F84F32
:100B40008491F901E752F84FD491F901E75CF74F2E
:100B5000C491CC23A1F081110E943205EC2FF0E06A
:100B6000EE0FFF1FE758F84FA591B491EC91ED23DC
:100B700081E090E009F480E0DF91CF91089580E07A
:100B800090E0FACF1F93CF93DF93282F30E0F90145
:100B9000ED56F84F8491F901E752F84FD491F901DD
:100BA000E75CF74FC491CC23A9F0162F81110E9466
:100BB0003205EC2FF0E0EE0FFF1FE15EF74FA5913D
:100BC000B4918FB7F894EC91111108C0D095DE2341
:100BD000DC938FBFDF91CF911F910895DE2BF8CF6B
:100BE000CF93DF9390E0FC01E752F84F2491875CAC
:100BF000974FFC0184918823C9F090E0880F991FDA
:100C0000FC01E15AF84FA591B491FC01E15EF74F68
:100C1000C591D49161110DC09FB7F8948C91209526
:100C200082238C938881282328839FBFDF91CF91D3
:100C30000895623051F49FB7F8943C91822F8095CB
:100C400083238C93E8812E2BEFCF8FB7F894EC9110
:100C50002E2B2C938FBFEACFCF93DF93CCEED5E032
:100C600061E089810E94F0050E94000560E08881B2
:100C70000E94F0050E94000560E089810E94F00555
:100C8000DF91CF910C9400050F931F93CF93DF93C7
:100C9000D82FC8E061E08091EC050E94F0050E9429
:100CA00000050D2F10E060E0D0FF61E08091ED05C0
:100CB0000E94F0050E94000560E08091EC050E9412
:100CC000F0050E94000515950795D02FC15011F72A
:100CD00061E08091EC050E94F00560E08091ED05F7
:100CE0000E94F0050E94000560E08091EC050E94E2
:100CF000F0050E9400058091ED050E949905C82F1E
:100D0000811105C061E08091ED050E94F0050E940F
:100D1000000561E08091EC050E94F0050E9400054D
:100D200081E0C11101C080E0DF91CF911F910F914F
:100D3000089561E08091ED050E94F0050C94000596
:100D4000EF92FF920F931F93CF93DF93182FE92E0B
:100D5000062F0E94990680E40E9444060E942C06F9
:100D60000E94990680EC0E944406F12EC12FDE2DD0
:100D700089910E9444068C2F8F198017C8F30E9416
:100D80002C060E9499068091EE058F7080580E9473
:100D90004406DF91CF911F910F91FF90EF900C943B
:100DA0002C06CF93DF9300D01F92CDB7DEB7198208
:100DB0001A821B821C8264E0CE0101960E94A0066A
:100DC0000F900F900F900F90DF91CF9108951F9388
:100DD000CF93DF93182FEB0161E00E94F00520977D
:100DE00039F460E0812FDF91CF911F910C94C205FF
:100DF000CF3FD10511F461E0F5CFE12FF0E0ED56E2
:100E0000F84FE491E150E23108F0B3C0F0E08827F8
:100E1000E35FF84F8F4F0C942E2B1F0727072C07EB
:100E200036074007B9074A0752075A0764076E0793
:100E3000780787079107B9079B07A507AF0784B510
:100E4000806884BDC7BDDF91CF911F91089584B59F
:100E5000806284BDC8BDF7CF809180008068809398
:100E60008000D0938900C0938800EDCF80918000EE
:100E7000806280938000D0938B00C0938A00E3CF80
:100E800080918000886080938000D0938D00C09313
:100E90008C00D9CF8091B00080688093B000C0935F
:100EA000B300D1CF8091B00080628093B000C09336
:100EB000B400C9CF80919000806880939000D09357
:100EC0009900C0939800BFCF80919000806280937A
:100ED0009000D0939B00C0939A00B5CF8091900072
:100EE000886080939000D0939D00C0939C00ABCF0E
:100EF0008091A00080688093A0008091A0008F7BEB
:100F00008093A000D093A900C093A8009CCF8091AB
:100F1000A00080628093A000D093AB00C093AA0091
:100F200092CF8091A00088608093A000D093AD0004
:100F3000C093AC0088CF809120018068809320010D
:100F4000D0932901C09328017ECF80912001806237
:100F500080932001D0932B01C0932A0174CF8091FC
:100F60002001886080932001D0932D01C0932C0133
:100F70006ACFC038D1050CF03ECF33CF90917B00C3
:100F8000986090937B0086538770806480937C0088
:100F900080917A00806480937A0080917A0086FD47
:100FA000FCCF809178009091790008953FB7F89434
:100FB0008091630390916403A0916503B0916603EF
:100FC00026B5A89B05C02F3F19F00196A11DB11DA4
:100FD0003FBFBA2FA92F982F8827BC01CD01620FE0
:100FE000711D811D911D42E0660F771F881F991F9B
:100FF0004A95D1F708958F929F92AF92BF92CF9268
:10100000DF92EF92FF926B017C010E94D6074B01A9
:101010005C01C114D104E104F104B9F00E94D607C7
:10102000681979098A099B09683E73408105910511
:1010300080F321E0C21AD108E108F10888EE880E99
:1010400083E0981EA11CB11CE4CFFF90EF90DF90CD
:10105000CF90BF90AF909F908F9008952FB7F89446
:1010600060915F03709160038091610390916203CE
:101070002FBF08950F931F93CF93DF93C82FD62FC1
:1010800086E0C89FF0011124E358FA4F11A2878D22
:1010900090A181309105F1F058F082309105F1F185
:1010A000039709F440C0DF91CF911F910F910895EC
:1010B0006623C9F361E070E08C2F0E940F050E9447
:1010C0002E086093D5057093D6058093D70590932D
:1010D000D805E9CF0E942E080091D5051091D605BC
:1010E0002091D7053091D805AB01BC01401B510BB5
:1010F000620B730B8091E7059091E805B0E0A0E0EA
:1011000084179507A607B70748F462E070E08C2FB4
:10111000DF91CF911F910F910C940F0563E070E068
:10112000D111C1CFF4CF70E060E0F1CF862F642FF2
:101130000C94F005862F642F0C94C205862F0C9416
:101140009905AF92BF92CF92DF92EF92FF920F93E9
:101150001F93CF93DF936C017B018B01040F151F4D
:10116000EB015E01AE18BF08C017D10759F06991B5
:10117000D601ED91FC910190F081E02DC601199509
:10118000892B79F7C501DF91CF911F910F91FF90C6
:10119000EF90DF90CF90BF90AF900895FC01538DFA
:1011A000448D252F30E0842F90E0821B930B541741
:1011B00010F0CF96089501970895FC01918D828DCE
:1011C000981761F0A28DAE0FBF2FB11D5D968C9167
:1011D000928D9F5F9F73928F90E008958FEF9FEFA6
:1011E0000895FC01918D828D981731F0828DE80F62
:1011F000F11D858D90E008958FEF9FEF0895FC011C
:10120000918D228D892F90E0805C9F4F821B9109E8
:101210008F739927089587E693E00E94FF0821E0E5
:10122000892B09F420E0822F089584E094E00E9445
:10123000FF0821E0892B09F420E0822F0895FC01AA
:10124000A48DA80FB92FB11DA35ABF4F2C91848D27
:1012500090E001968F739927848FA689B7892C9384
:10126000A089B1898C91837080648C93938D848DD7
:10127000981306C00288F389E02D80818F7D8083DA
:101280000895EF92FF920F931F93CF93DF93EC019A
:1012900081E0888F9B8D8C8D98131AC0E889F9891D
:1012A000808185FF15C09FB7F894EE89FF89608320
:1012B000E889F98980818370806480839FBF81E0A1
:1012C00090E0DF91CF911F910F91FF90EF900895E3
:1012D000F62E0B8D10E00F5F1F4F0F731127E02EBE
:1012E0008C8D8E110CC00FB607FCFACFE889F989F6
:1012F000808185FFF5CFCE010E941F09F1CFEB8DD4
:10130000EC0FFD2FF11DE35AFF4FF0829FB7F894C9
:101310000B8FEA89FB8980818062CFCFCF93DF93E7
:10132000EC01888D8823B9F0AA89BB89E889F989FD
:101330008C9185FD03C0808186FD0DC00FB607FC32
:10134000F7CF8C9185FFF2CF808185FFEDCFCE0165
:101350000E941F09E9CFDF91CF91089580E090E0CE
:10136000892B29F00E94150981110E94000080E05C
:1013700090E0892B49F080E090E0892B29F00E94D1
:10138000000081110E94000080E090E0892B49F06C
:1013900080E090E0892B29F00E94000081110E94DA
:1013A000000080E090E0892B29F00E940B09811158
:1013B0000C94000008952091ED02260F3327331F6F
:1013C00021323105ECF420911103FC0190E080E022
:1013D000243069F082E00895A091ED022191AC01E2
:1013E00043535D4FA40FB52FB11D2C930196861763
:1013F00098F38091ED02680F6093ED0280E008950C
:1014000081E0089508958FEF9FEF08958FEF9FEF8C
:1014100008958091C60290E0919581959109089573
:10142000CF93DF93CB01EA01642F0E94DB09CE0149
:10143000DF91CF910895CF93DF931F92CDB7DEB7A1
:10144000698361E0CE0101960E94DB0981E090E0B2
:101450000F90DF91CF910895FC01A5A1B6A18C91C9
:1014600092A589238C93A5A1B6A18C9191A5892BD6
:101470008C930895DC019396ED91FC919497908163
:1014800098968C91892380830895DC019396ED9141
:10149000FC919497908197968C91892B80830895E5
:1014A000DC019196ED91FC919297908196968C91AA
:1014B000892380830895DC019196ED91FC919297A8
:1014C000908195968C91892B80830895CF92DF929D
:1014D000EF92FF921F93CF93DF93EC016A017B01A0
:1014E0008DA9811123C08F2D9927AA27BB278EBDD7
:1014F0000DB407FEFDCFC701AA27BB278EBD0DB4D3
:1015000007FEFDCFBB27AF2D9E2D8D2D8EBD0DB4BB
:1015100007FEFDCFCEBC0DB407FEFDCFDF91CF910E
:101520001F91FF90EF90DF90CF9008958130B1F43C
:1015300010E2CE01F7FE0FC00E945B0ACE010E94AE
:10154000450ACE010E943A0ACC0CDD1CEE1CFF1CA1
:10155000115079F7E3CF0E94500AF0CFEF8DF8A138
:101560008F2D9927AA27BB278083CE010E942C0AA2
:10157000EF8DF8A1C701AA27BB278083CE010E9467
:101580002C0AEF8DF8A1BB27AF2D9E2D8D2D8083CA
:10159000CE010E942C0AEF8DF8A1C082CE01DF910E
:1015A000CF911F91FF90EF90DF90CF900C942C0A79
:1015B000FF920F931F93CF93DF93EC018B018DA9C3
:1015C00081110EC01EBD0DB407FEFDCF0EBD0DB4C2
:1015D00007FEFDCFDF91CF911F910F91FF900895EE
:1015E0008130B1F490E1F92ECE0117FF0EC00E94B8
:1015F0005B0ACE010E94450ACE010E943A0A000F02
:10160000111FFA94F110F0CFE5CF0E94500AF1CFEC
:10161000EF8DF8A11083CE010E942C0AEF8DF8A166
:101620000083CE01DF91CF911F910F91FF900C9419
:101630002C0A0F931F93CF93DF93EC01162F8DA9E4
:10164000811109C06EBD0DB407FEFDCFDF91CF91B2
:101650001F910F910895813099F408E0CE0117FF92
:101660000CC00E945B0ACE010E94450A110FCE01F8
:101670000E943A0A015091F7E9CF0E94500AF3CF35
:10168000EF8DF8A16083CE01DF91CF911F910F9173
:101690000C942C0ACF93DF93EC01ED8DFE8D8081AD
:1016A0009CA989238083CE010E94190BED8DFE8DAC
:1016B00080819BA9892B8083DF91CF9108958F92A0
:1016C0009F92AF92BF92CF92DF92EF92FF920F93D1
:1016D0001F93CF93DF93EC0189AD9AAD680F791F0B
:1016E0008BAD9CAD480F591F21503109260F371F74
:1016F0004901B12CA12CCB01B0E0A0E0DC0199277D
:101700008827882A992AAA2ABB2A680181E0C81A50
:10171000D108C40ED51EF12CE12C70E060E0BA01B6
:1017200055274427C42AD52AE62AF72A6AE2CE0199
:101730000E944A0BB501A401CE010E94660A6BE229
:10174000CE010E944A0BB701A601CE010E94660A93
:101750006CE2CE01DF91CF911F910F91FF90EF903E
:10176000DF90CF90BF90AF909F908F900C944A0BDA
:10177000FC0185A9811104C091A182A19CBD8DBDF0
:1017800008951F93CF93DF93EC01162FE881F98121
:101790000284F385E02D1995112371F06DADCE0112
:1017A0000E944A0BE881F9810688F789E02DCE0175
:1017B000DF91CF911F9119946EADF1CFAF92BF928F
:1017C000CF92DF92EF92FF920F931F93CF93DF930D
:1017D000EC0177FD38C088859985681779079CF5F5
:1017E00057FD31C08A859B854817590764F5690103
:1017F0007A015B01E881F9810284F385E02DCE0155
:101800001995E881F98102A4F3A5E02D01E010E02B
:1018100021E030E0A701B501CE011995B601CE0156
:101820000E94D80AE881F9810688F789E02DCE0167
:10183000DF91CF911F910F91FF90EF90DF90CF90AC
:10184000BF90AF901994DF91CF911F910F91FF90AE
:10185000EF90DF90CF90BF90AF9008958F929F92BE
:10186000AF92BF92CF92DF92EF92FF920F931F93AE
:10187000CF93DF93EC0149015701E881F98102A47C
:10188000F3A5E02D19959401D8010E94362B6B0128
:101890007C01C114D104E104F10409F47DC08DA9D7
:1018A000811115C081E0C81AD108E108F1088FEF55
:1018B000C816D806E806F80609F46EC0BEBC0DB41A
:1018C00007FEFDCFAEBC0DB407FEFDCFEBCF8130E0
:1018D00099F581E0C81AD108E108F1088FEFC81620
:1018E000D806E806F80609F457C00B2D18E0CE011B
:1018F00007FF1CC00E945B0ACE010E94450ACE0170
:101900000E943A0A000F115091F70A2D18E0CE01FB
:1019100007FF0FC00E945B0ACE010E94450ACE015C
:101920000E943A0A000F115091F7D3CF0E94500A3B
:10193000E3CF0E94500AF0CFBA1016C0CC0CDD1CC9
:10194000EE1CFF1CEF8DF8A1B08281E0C81AD1080F
:10195000E108F1088FEFC816D806E806F806E1F0AE
:10196000CE010E942C0AF1CF81E0C81AD108E1080B
:10197000F1088FEFC816D806E806F80669F0EF8D73
:10198000F8A1B082CE010E942C0AEF8DF8A1A082AE
:10199000CE010E942C0AE8CFDF91CF911F910F91C9
:1019A000FF90EF90DF90CF90BF90AF909F908F907F
:1019B00008958F929F92AF92BF92CF92DF92EF9253
:1019C000FF920F931F93CF93DF934C01EB016A01BA
:1019D000590137FF07C0C9010196C80FD91FB1943B
:1019E000A194B108F401A085B185CA17DB070CF0FA
:1019F00058C017FF07C0C8010196C80ED91E11951F
:101A000001951109F40182859385C816D9060CF059
:101A100048C0FE01EA0DFB1DAF014150510957FDC1
:101A200040C0B601600F711F9B012150310937FD85
:101A300038C0D7FF03C05F01D0E0C0E0D7FE03C0CD
:101A40008B01D12CC12C4A175B071CF05D01AC1A2D
:101A5000BD0A281739071CF08C010C191D09D40187
:101A6000ED91FC910284F385E02DC4011995950157
:101A7000A601BE01C4010E942E0CD401ED91FC917F
:101A80000688F789E02DC401DF91CF911F910F9156
:101A9000FF90EF90DF90CF90BF90AF909F908F908E
:101AA0001994DF91CF911F910F91FF90EF90DF90EC
:101AB000CF90BF90AF909F908F900895EF92FF923C
:101AC0000F931F932115310529F00115110511F010
:101AD0000E94D90C1F910F91FF90EF9008958F9263
:101AE0009F92AF92BF92CF92DF92EF92FF920F93AD
:101AF0001F93CF93DF935C014B016A01E90177FDEE
:101B000052C0DC0118968D919C91681779070CF0F2
:101B10004AC0209709F447C037FF07C0C9010196A2
:101B2000C80ED91ED195C195D109F501828593853D
:101B3000C816D906C4F5A6014C0F5D1F9A012150A5
:101B4000310937FD30C0D7FE03C0EA01D12CC12CCA
:101B5000281739071CF0EC01CC19DD09D501ED91EE
:101B6000FC910284F385E02DC501199578018E0161
:101B700021E030E0A601B401C5010E942E0CD50180
:101B8000ED91FC910688F789E02DC501DF91CF9199
:101B90001F910F91FF90EF90DF90CF90BF90AF908B
:101BA0009F908F901994DF91CF911F910F91FF908B
:101BB000EF90DF90CF90BF90AF909F908F9008955F
:101BC0008F929F92AF92BF92CF92DF92EF92FF924D
:101BD0000F931F93CF93DF935C016B014A01E901DF
:101BE00057FD52C0DC011A968D919C9148175907F8
:101BF0000CF04AC0209709F447C037FF07C0C9015D
:101C00000196C80ED91ED195C195D109F5018085DF
:101C10009185C816D906C4F5A6014C0F5D1F9A011F
:101C20002150310937FD30C0D7FE03C0EA01D12C65
:101C3000C12C281739071CF0EC01CC19DD09D5019E
:101C4000ED91FC910284F385E02DC5011995780191
:101C500001E010E09E01A401B601C5010E942E0C16
:101C6000D501ED91FC910688F789E02DC501DF9142
:101C7000CF911F910F91FF90EF90DF90CF90BF9089
:101C8000AF909F908F901994DF91CF911F910F91FA
:101C9000FF90EF90DF90CF90BF90AF909F908F908C
:101CA0000895EF92FF920F931F93CF93DF9377FDE9
:101CB00032C0DC011896ED91FC916E177F075CF540
:101CC0002115310541F137FF07C0F90131964E0F5B
:101CD0005F1F319521953109DC011A96ED91FC9138
:101CE0004E175F07C4F4EA01C20FD31FDE0111973C
:101CF000B7FD11C057FF03C09E0150E040E0AE1792
:101D0000BF071CF09F01241B350B7801890121E0DE
:101D100030E00E942E0CDF91CF911F910F91FF9028
:101D2000EF900895EF92FF920F931F93CF93DF935D
:101D300057FD31C0DC011A96ED91FC914E175F07FB
:101D400054F52115310539F137FF07C0F9013196F6
:101D50006E0F7F1F319521953109DC011896ED91A9
:101D6000FC916E177F07BCF4EB01C20FD31FDE019D
:101D70001197B7FD10C077FF03C09E0170E060E0CF
:101D8000AE17BF071CF09F01261B370B780101E03F
:101D900010E00E942E0CDF91CF911F910F91FF90C8
:101DA000EF9008958F929F92AF92BF92CF92DF9261
:101DB000EF92FF920F931F93CF93DF93470121156B
:101DC000310509F44BC00115110509F447C037FF6F
:101DD00007C0F90131966E0F7F1F319521953109AA
:101DE000DC011896AD90BC906A157B05BCF517FF19
:101DF00007C0F80131964E0F5F1F1195019511092B
:101E0000DC011A96ED91FC914E175F073CF56B01D2
:101E1000C20ED31EE6012197D7FD20C07A01E00E45
:101E2000F11ED7011197B7FD19C077FF03C09601C6
:101E300070E060E057FF03C0870150E040E0CA1542
:101E4000DB051CF09501261B370BAE17BF071CF0F6
:101E50008F01041B150B74010E942E0CDF91CF9192
:101E60001F910F91FF90EF90DF90CF90BF90AF90B8
:101E70009F908F900895EF92FF920F931F93CF93AF
:101E8000DF93EC0177FD22C0888599856817790773
:101E9000ECF457FD1BC08A859B8548175907B4F49D
:101EA0007901E881F98102A4F3A5E02D01E010E0B9
:101EB00021E030E0CE011995B701CE01DF91CF913D
:101EC0001F910F91FF90EF900C94D80ADF91CF9162
:101ED0001F910F91FF90EF900895CF93DF93EC0146
:101EE0000E94B80B8FA987FD06C0EB8DFC8D808109
:101EF0009AA989238083DF91CF9108950895AF92A5
:101F0000BF92CF92DF92EF92FF920F931F93CF93E6
:101F1000DF93BC016F5F7F4FFC011491115008F4F7
:101F20007AC0FB01D4917B01F2E0EF0EF11CFB01C2
:101F300031960491C02FCF7782EA94E00E94B80BCB
:101F40008091D90487FD09C0E091BD04F091BE04E1
:101F500080819091D40489238083E091BF04F09123
:101F6000C00480819091D604892380836D2F82EAFA
:101F700094E00E94190BE091BF04F091C0048081AD
:101F80009091D504892B8083F701B12CA12CD0E04E
:101F9000AC16BD06F4F48091D7046F01823081F451
:101FA0008091D204882361F0619171916F0182EA7E
:101FB00094E00E94D80AEFEFAE1ABE0AF601E8CF0D
:101FC0008FEFC81AD80A649182EA94E00E94190B34
:101FD000F2CF8091D90487FD09C0E091BD04F09152
:101FE000BE0480819091D304892B8083B7016C0F4C
:101FF0007D1F07FF93CFEB012196FB01649170E0F9
:102000006F3F710511F464EF71E090E080E00E9491
:10201000FB07BE0183CFDF91CF911F910F91FF90FE
:10202000EF90DF90CF90BF90AF9008950F931F93E4
:10203000CF93DF93EC018B010E94B80B8FA987FD32
:1020400006C0EB8DFC8D80819AA989238083ED8D5C
:10205000FE8D80819CA98923808366E3CE010E9446
:10206000190BED8DFE8D80819BA9892B80838DA915
:10207000F801823091F06081CE010E94190B8FA986
:1020800087FD06C0EB8DFC8D808199A9892B80830B
:10209000DF91CF911F910F91089588A9882359F35B
:1020A00060817181CE010E94D80AE9CFCF93DF937E
:1020B0001F92CDB7DEB7FC0119826370668BDC011D
:1020C000AD5BBF4F2C9130E011968C9190E0623067
:1020D00031F06330C9F0613081F040EC498332AFB8
:1020E00021AF94AF83AFBE016F5F7F4FCF010E94DE
:1020F00016100F90DF91CF91089540EA498334AFD5
:1021000023AF92AF81AFEFCF40E6F8CFCF93DF930D
:102110001F92CDB7DEB7FC0119826370668BDC01BC
:10212000AA5BBF4F8C91982F9B7FAF014C5B5F4F99
:10213000913031F493E0623008F091E0DA019C9341
:102140009F012D5B3F4F623009F44CC0633009F4AE
:1021500059C0613069F1823021F098EC843009F087
:1021600046C090EC99838130D1F480E890E0938769
:10217000828791878087D9018C9190E092AF81AF5F
:10218000DA018C9190E094AF83AFBE016F5F7F4F17
:10219000CF010E9416100F90DF91CF9108958430E7
:1021A00051F580EA90E09387828780E590E0E1CF67
:1021B000823019F098EA843061F590EA9983813091
:1021C00091F580E890E09187808793878287D90195
:1021D0008C9190E094AF83AFDA018C9190E092AF54
:1021E00081AFD3CF823039F08430D9F298E099832F
:1021F000813009F4BACF80EA90E09387828780E843
:1022000090E0B7CF823019F098E6843011F490E670
:10221000D5CF99838130A9F280EA90E091878087B9
:1022200080E890E0D2CF8430B9F780EA90E09187DF
:10223000808780E590E0C9CFFC0187A987FD06C0B3
:10224000A38DB48D9C9181A9892B8C9308950895B9
:10225000FC016370668B84819581268137816130B2
:1022600039F0633029F0918780873387228708957A
:10227000318720879387828708952F923F924F92CC
:102280005F926F927F928F929F92AF92BF92CF9206
:10229000DF92EF92FF920F931F93CF93DF93CDB70F
:1022A000DEB76A970FB6F894DEBF0FBECDBF9A8F28
:1022B000898F7A8369834A01D22E18870F83370169
:1022C000BC2CDC0159962D913C915A972115310572
:1022D00009F015C118968D919C9119976817790787
:1022E0000CF0D7C11A968D919C91481759070CF0A4
:1022F000D0C14C2C512CB6E0CB9E600D711D112429
:102300007C876B87161617060CF0C3C1EA2DF0E028
:10231000FA87E98793E0EE0FFF1F9A95E1F7F88BB4
:10232000EF87CF01840F951F181619060CF0B1C165
:10233000A98DBA8D58968C91811104C0BFEABD1544
:1023400008F4D394A98DBA8DED91FC911197028474
:10235000F385E02DCD011995B5E0DB9EC001112478
:10236000E981FA81FC83EB83312C212C9C012451DF
:102370003E4F388F2F8B4A2D50E05E8B4D8BEF896F
:10238000F88DE20DF31D44919E828D82D12CC12CDB
:1023900069817A81620D731D7A8B698B842F90E03D
:1023A0009C8B8B8BE98DFA8DA081B18140FF82C01F
:1023B000F1E0BF126FC0AF126DC01C96ED91FC91A1
:1023C0002F813885A4014C0D5D1D69897A89898D1D
:1023D0009A8D1995EB89FC89F595E7954E2F5FEF5E
:1023E000C51AD50A6D817E818D899E89680F791FF6
:1023F0007E836D8398E0C916D10481F6AFEF2A1A67
:102400003A0AEB81FC81E40DF51DFC83EB83F5E0DA
:102410002F16310409F0B3CF2F81388526153705E3
:10242000B9F0A98DBA8DED91FC91B1E0BB1257C006
:10243000AB1255C069817A816B5F7F4F0088F1894B
:10244000E02D830128E030E0A401898D9A8D199553
:10245000A98DBA8DED91FC9111970688F789E02D31
:10246000CD016A960FB6F894DEBF0FBECDBFDF91E7
:10247000CF911F910F91FF90EF90DF90CF90BF9081
:10248000AF909F908F907F906F905F904F903F9014
:102490002F9019941E96ED91FC91EF80F884098598
:1024A0001A8592014D815E816B817C81898D9A8D27
:1024B000199590CF2F8138852615370509F48ACFD5
:1024C00031E0B31207C0A31205C01C96ED91FC9138
:1024D000930178CF1E96ED91FC917301E0CF6B854F
:1024E0007C85641975090684F785E02D73010F85D5
:1024F00018899201A401898D9A8D1995A9CFF901A6
:1025000034969491329745915491D91AB7E0DB9E55
:10251000400D511D1124F901259134913C8B2B8BD9
:10252000FA0125903490FA013296749031963491E4
:10253000398B329664903196449041E04C1518F0F6
:102540004A1508F07FC0662D062C000C770B7C83A3
:102550006B83842D042C000C990B9E838D83A98D95
:10256000BA8DED91FC9111970284F385E02DCD0198
:102570001995512CD12CC12CEA2DF0E0FA87E9876E
:102580002B2D30E03C872B87A401440D511D47FCC7
:102590005A95588F4F8B69817A81660D711D67FC42
:1025A0007A957E876D877989C71608F051CF2C2DD3
:1025B00030E04D815E81420F531FA985BA854A9F45
:1025C000C0014B9F900D5A9F900D1124FC01E80D06
:1025D000F91DF88BEF87852D612C4F89588D420F9F
:1025E000531F5E8B4D8B671408F050C044244394F6
:1025F000480E877041F4C1010196EB89FC89E20D18
:10260000F31DD4901C01D7FE19C0A98DBA8DED9190
:10261000FC91662D70E0B1E0BB1219C0AB1217C07F
:102620002D853E85620F731F0484F585E02D2F8173
:1026300038854D895E89898D9A8D1995DD0C639455
:10264000842DD1CF1E821D821C821B8288CF4B819C
:102650005C81640F751FAB85BC856A9FC0016B9F51
:10266000900D7A9F900D112469817A81680F791FEE
:102670000684F785E02DEF80F88409851A859D0191
:102680004F855889898D9A8D1995D8CF570CC39449
:102690008ACF6A960FB6F894DEBF0FBECDBFDF912A
:1026A000CF911F910F91FF90EF90DF90CF90BF904F
:1026B000AF909F908F907F906F905F904F903F90E2
:1026C0002F9008958F929F92AF92CF92EF92FF92A8
:1026D0000F931F93CF93DF93EC01262F898D9A8D53
:1026E000009709F051C06A30D1F41D861C868D898F
:1026F00048E0849F900111248E859F85820F931F4F
:102700009F878E8781E090E0DF91CF911F910F919D
:10271000FF90EF90CF90AF909F908F9008956D3085
:1027200089F3CC88AD888F898823C1F08C859D85FD
:1027300036E0C39E800D911D1124488559854817A8
:10274000590764F44E855F851D861C8638E0A39E7C
:10275000C0011124840F951F9F878E87EA88FB880C
:10276000088919894E855F856C857D85CE010E941B
:102770003D112C898C859D8546E0249F800D911DFF
:1027800011249D878C87BECF6A3069F41D861C8614
:10279000FC013896E4912D898E859F85E29F800DFE
:1027A000911D1124ADCF6D3009F4ACCFFC013496EE
:1027B0003491631708F4A6CF3296E491E61708F433
:1027C000A1CFFC01329685909490462F431B342F65
:1027D00047E0349F800C911C1124F401329634910F
:1027E0003196E4913323A9F1EE2399F1CC88F401D9
:1027F0003596E491AD884F89442301F10E2E000CEB
:10280000FF0BE30FF11DCE9EA001CF9E500D1124B2
:102810006C857D85460F571F688579856417750718
:102820006CF44E855F851D861C86FC013896E4910C
:10283000AE9E400D511D11245F874E87EA88FB88AC
:10284000088919894E855F856C857D85CE010E943A
:102850003D11F4013496E4912C898C859D85E29F8D
:10286000800D911D11248DCF6F927F928F929F9238
:10287000AF92BF92CF92DF92EF92FF920F931F938E
:10288000CF93DF93EC016B015A0139014801E881D4
:10289000F9810284F385E02D1995E881F981028898
:1028A000F389E02D87019301A501B601CE011995A9
:1028B000A501480D591D41505109E881F98102884F
:1028C000F389E02D9301B601CE011995E881F981D4
:1028D0000088F189E02D9401A501B601CE0119957A
:1028E000C60CD71CB60161507109E881F9810088D6
:1028F000F189E02D9401A501CE011995E881F981B6
:102900000688F789E02DCE01DF91CF911F910F91BD
:10291000FF90EF90DF90CF90BF90AF909F908F90FF
:102920007F906F9019946F927F928F929F92AF9247
:10293000BF92CF92DF92EF92FF920F931F93CF93AC
:10294000DF935C01EB016A01490138018701DC0179
:10295000ED91FC916217730719F5641675062CF05A
:10296000962D872D3A01C92ED82E960126193709A2
:102970002F5F3F4F048CF58DE02DA301BE01C501F3
:102980001995DF91CF911F910F91FF90EF90DF90FC
:10299000CF90BF90AF909F908F907F906F90089551
:1029A0004615570591F42617370724F0892D4B015A
:1029B000C22FD82F9E01281939092F5F3F4F068C4F
:1029C000F78DE02DA601B401DACF0284F385E02D66
:1029D0001995D501ED91FC910488F589E02D8301CD
:1029E0009401A601BE01C5011995D501ED91FC9197
:1029F0000688F789E02DC501DF91CF911F910F91D6
:102A0000FF90EF90DF90CF90BF90AF909F908F900E
:102A10007F906F901994EF92FF920F931F93DC01B8
:102A20001A960D911C911B9718962D913C91199710
:102A3000ED91FC9100A0F1A1E02D7B0150E040E080
:102A400070E060E019951F910F91FF90EF9008954D
:102A50004F925F926F927F928F929F92AF92BF92AE
:102A6000CF92DF92EF92FF920F931F93CF93DF935A
:102A70006C012B015A0139014801DC01ED91FC91F7
:102A80000284F385E02D1995E201640C751CD601D2
:102A9000ED91FC91C615D7055CF40088F189E02D15
:102AA00087019401A501BE01C60119952196EFCFBA
:102AB0000688F789E02DC601DF91CF911F910F9114
:102AC000FF90EF90DF90CF90BF90AF909F908F904E
:102AD0007F906F905F904F9019948F929F92AF92DA
:102AE000BF92CF92DF92EF92FF920F931F93CF93FB
:102AF000DF93EC015B014A016901E881F9810284FD
:102B0000F385E02D199595012C0D3D1D21503109BE
:102B1000E881F9810488F589E02D78018401A40118
:102B2000B501CE011995E881F9810688F789E02D74
:102B3000CE01DF91CF911F910F91FF90EF90DF9029
:102B4000CF90BF90AF909F908F9019948F929F924B
:102B5000AF92BF92CF92DF92EF92FF920F931F93AB
:102B6000CF93DF93EC015B014A0169017801E881B1
:102B7000F9810284F385E02D1995C80CD91C8601D2
:102B800001501109E881F9810488F589E02D95014A
:102B9000A401B501CE011995E881F9810688F7896C
:102BA000E02DCE01DF91CF911F910F91FF90EF901B
:102BB000DF90CF90BF90AF909F908F901994EF923D
:102BC000FF920F931F93DC01ED91FC9100A0F1A106
:102BD000E02D19951F910F91FF90EF9008950F939D
:102BE0001F93DC01ED91FC91068CF78DE02D19957A
:102BF0001F910F9108950F931F93DC01ED91FC91AC
:102C0000048CF58DE02D19951F910F910895DC012D
:102C1000ED91FC910084F185E02D19942F923F9263
:102C20004F925F926F927F928F929F92AF92BF92DC
:102C3000CF92DF92EF92FF920F931F93CF93DF9388
:102C400000D000D0CDB7DEB73C016A013E832D83B2
:102C5000FC82EB825801A41AB50AB7FE03C0B194F6
:102C6000A194B1088D809E80861A970A97FE03C0B2
:102C70009194819491088A149B045CF0902F812F89
:102C80000D811E819D838E839C2D8D2D6B01692F5F
:102C9000782F0C151D055CF09D818E817E836D83E0
:102CA000692F782F902F812F8601C92ED82E1601DB
:102CB000201A310A2B012D813E81421A530A57FEF8
:102CC00003C0519441945108710137FE03C03FEF96
:102CD000E31AF30AF594E7948D819E81861797078E
:102CE0005CF5A1E0B0E0BA83A983C016D1064CF12F
:102CF000D301ED91FC910484F585E02D2B813C817D
:102D0000A8016D817E818A149B041CF04D815E8137
:102D1000B801C3011995E418F508F7FE0AC02D8122
:102D20003E8189819A81280F391F3E832D83E20CD1
:102D3000F31C0F5F1F4FD9CF2FEF3FEF3A8329834B
:102D4000D4CF26960FB6F894DEBF0FBECDBFDF916D
:102D5000CF911F910F91FF90EF90DF90CF90BF9098
:102D6000AF909F908F907F906F905F904F903F902B
:102D70002F900895089590E080E00895AF92BF925B
:102D8000CF92DF92EF92FF920F931F93CF93DF9337
:102D90006B017A01EC01CE53DD4F28813CE0389F76
:102DA0008001399F100D1124A0907C05B12C27FFC4
:102DB0001FC0FB011182108288818F5F8883888108
:102DC0009801280F311D87FD3A95F6012A153B051C
:102DD0001CF488818C30C4F1808191810496803408
:102DE0009C4908F473C0F60180819181049670C0FB
:102DF00088819801280F311D87FD3A952A153B05DA
:102E0000DCF68881A801480F511D87FD5A95FA010B
:102E1000EE0FFF1FE40FF51FE451FB4F808186FF8B
:102E2000CBCF8881F801E80FF11D87FDFA95CF011E
:102E3000EE0FFF1FE80FF91FE451FB4F808160E0A8
:102E40008F730E94C205B8CF808191812881A8012B
:102E5000420F511D27FD5A959A01FA01EE0FFF1FEF
:102E6000E20FF31FE451FB4F21813281820F931F48
:102E7000F7019183808388819801280F311D87FD98
:102E80003A95F901EE0FFF1FE20FF31FE451FB4FDC
:102E9000808186FF22C08881080F111D87FD1A9549
:102EA000F801EE0FFF1FE00FF11FE451FB4F80818F
:102EB00061E08F73DF91CF911F910F91FF90EF90A1
:102EC000DF90CF90BF90AF900C94C20580E49CE956
:102ED000F701918380838FEF8883DF91CF911F91DA
:102EE0000F91FF90EF90DF90CF90BF90AF9008953B
:102EF00060E089E10E94C20561E08EE10E94C205A6
:102F000060E08FE10C94C20590E080E00C947404C2
:102F10008F929F92AF92BF92CF92DF92EF92FF92E9
:102F20000F931F93CF93DF93D0E0C0E0082F10E002
:102F30006B01770FEE08FF08C017D10744F560E07A
:102F400082E40E94C2050E942E084B015C010E948F
:102F50002E08681979098A099B096C157D058E056B
:102F60009F05A8F361E082E40E94C2050E942E083A
:102F70004B015C010E942E08681979098A099B0996
:102F80006C157D058E059F05A8F32196D5CFDF91A1
:102F9000CF911F910F91FF90EF90DF90CF90BF9056
:102FA000AF909F908F900895CF93DF93D62FC42F2B
:102FB000682F70E08DE20E94E7066D2F70E08CE2D2
:102FC0000E94E7066C2F70E08EE2DF91CF910C94A7
:102FD000E7068F929F92AF92BF92CF92DF92EF92CD
:102FE000FF925C010E942E086B017C01809100021F
:102FF00090910102AB2809F092C0019709F023C11A
:1030000010920102109200020E942E086C197D0994
:103010008E099F09613772408105910508F013C13F
:103020000E94781761E08EE30E94C20560E08AE2A8
:103030000E94C20560E08FE30E94C20560E080E468
:103040000E94C2050E942E084B015C010E942E08BE
:10305000681979098A099B0965307105810591050F
:10306000A8F360E08EE30E94C20561E08AE20E945C
:10307000C20560E08FE30E94C20560E080E40E9428
:10308000C2050E942E084B015C010E942E0868199F
:1030900079098A099B096530710581059105A8F3B5
:1030A00060E08EE30E94C20560E08AE20E94C205F1
:1030B00061E08FE30E94C20560E080E40E94C205E7
:1030C0000E942E084B015C010E942E0868197909A4
:1030D0008A099B096530710581059105A8F360E0B7
:1030E0008EE30E94C20560E08AE20E94C20560E0B1
:1030F0008FE30E94C20561E080E40E94C2050E9445
:103100002E084B015C010E942E08681979098A0972
:103110009B096530710581059105A8F375CF892B51
:1031200009F091C081E090E0909301028093000249
:103130000E942E086C197D098E099F096137724023
:103140008105910508F07FC00E94781760E08EE34A
:103150000E94C20560E08AE20E94C20561E08FE33E
:103160000E94C20561E080E40E94C2050E942E0810
:103170004B015C010E942E08681979098A099B0994
:103180006530710581059105A8F360E08EE30E942A
:10319000C20561E08AE20E94C20561E08FE30E94FD
:1031A000C20560E080E40E94C2050E942E084B0127
:1031B0005C010E942E08681979098A099B0965300B
:1031C000710581059105A8F361E08EE30E94C205B7
:1031D00061E08AE20E94C20560E08FE30E94C205BE
:1031E00060E080E40E94C2050E942E084B015C0151
:1031F0000E942E08681979098A099B0965307105B2
:1032000081059105A8F361E08EE30E94C20560E0AC
:103210008AE20E94C20560E08FE30E94C20561E07D
:1032200080E40E94C2050E942E084B015C010E94AE
:103230002E08681979098A099B096530710581058D
:103240009105A8F375CFFF90EF90DF90CF90BF90DE
:10325000AF909F908F900895EF92FF920F931F93DE
:10326000CF93DF9361E08091F7050E94C2056AEF7A
:1032700070E080E090E00E94FB070E942E08009121
:10328000F9051091FA052091FB053091FC056017B6
:1032900071078207930740F41092F9051092FA051E
:1032A0001092FB051092FC052091FD05211119C01B
:1032B0000091F9051091FA052091FB053091FC056C
:1032C000601B710B820B930B603D7740810591056C
:1032D00040F481E0DF91CF911F910F91FF90EF902B
:1032E00008951092FD050E942E086093F9057093D1
:1032F000FA058093FB059093FC051092F50510925A
:10330000F4051092F3051092F2051092F10561E0B8
:103310008091F7050E94F00560E08091F7050E941A
:10332000C20564E170E080E090E00E94FB07F89441
:1033300061E08091F7050E94C2058BE990E001975A
:10334000F1F760E08091F7050E94F00510E081E060
:10335000C0E0D0E0E82EF12C8091F7050E9499059D
:103360008E159F0519F4DF5FDF3FB1F78091F705F8
:103370000E949905DF3FA1F0C43078F0C0FD0DC078
:10338000E12FE695E695E695F0E0EF50FA4F908153
:10339000990FD73008F590831F5FCF5FC535C9F609
:1033A00078941832B8F04091F5052091F10580919C
:1033B000F205280F3327331F8091F305280F311DA5
:1033C0008091F405820F932F911D992748171906B4
:1033D00009F47FCF80E07ECF9160DDCF0E94452B46
:1033E000FB0101900020E9F73197AF01461B570B15
:1033F000DC01ED91FC910280F381E02D19948F9214
:103400009F92AF92BF92EF92FF920F931F93CF9331
:10341000DF93CDB7DEB7A1970FB6F894DEBF0FBE2E
:10342000CDBF7C01FA01CB0119A2223008F42AE0B9
:103430008E010F5D1F4F822E912CB12CA12CBF014C
:10344000A50194010E94AE28F901CA016A300CF569
:10345000605DD8016E938D01232B242B252B79F7EA
:1034600090E080E0109721F0BD01C7010E94F019A3
:10347000A1960FB6F894DEBF0FBECDBFDF91CF91FE
:103480001F910F91FF90EF90BF90AF909F908F9002
:103490000895695CDECFCF92DF92EF92FF92CF93D7
:1034A000DF936C01990FEE08FF08F7FE1BC06DE279
:1034B00082EA94E00E946213EC0144275527BA0186
:1034C0004C195D096E097F092AE082EA94E00E94A6
:1034D000FF198C0F9D1FDF91CF91FF90EF90DF9030
:1034E000CF9008952AE0B701A60182EA94E0DF9127
:1034F000CF91FF90EF90DF90CF900C94FF190F9336
:103500001F93CF93DF93EC010E94F0198C0165E7C4
:1035100072E0CE010E94F019800F911FDF91CF91D0
:103520001F910F910895CF92DF92EF92FF920F9328
:103530001F93CF93DF93EC016A017B01C114D10487
:10354000E104F10439F4C12C48E4D42E48EEE42E11
:10355000FF24F394FE01FF96C082D182E282F382BF
:1035600081E28DAF80E28EAF369610818FA987FD04
:1035700007C061E00E94F00561E08FA90E94C205CA
:1035800061E088AD0E94F00561E088AD0E94C2054F
:103590008DA9811182C040E052E16AE770E0C41653
:1035A000D506E606F70640F4769567955795479554
:1035B0008F5F8630A1F787E0212F2C702065982F30
:1035C0009695922B99A3809581708AA3812F90E084
:1035D000B0E0A0E08BA39CA3ADA3BEA31FB7F8945B
:1035E00080913703811127C0EEE6F8E08491EEE088
:1035F000F8E09491E82FF0E0EE0FFF1FE15AF84F4A
:10360000A591B491EC91E92321F461E085E30E9456
:10361000C20561E085E30E94F0058CB580618CBD38
:103620008CB580648CBD61E084E30E94F00561E0AC
:1036300083E30E94F005809137038F5F8093370307
:103640001FBF8EA987FD75C061E00E94F00561E093
:103650008EA90E94C20564E670E080E090E00E94BE
:10366000FB0760E08EA90E94C20564E670E080E07E
:1036700090E00E94FB0761E08EA90E94C20568EC01
:1036800070E080E090E0DF91CF911F910F91FF906B
:10369000EF90DF90CF900C94FB0709E318E0F12C3A
:1036A0008130B9F461E08AA50E94F00560E08AA546
:1036B0000E94C20561E08CA50E94F00560E08CA527
:1036C0000E94C2058BA587FDBCCF60E00E94F0057B
:1036D000B8CFF8018491E82FF0E0EE0FFF1FE15E14
:1036E000F74F859194912F8D38A12817390741F410
:1036F00061E08F2D0E94F00560E08F2D0E94C205D1
:10370000F3940F5F1F4FF6E4FF12E3CF61E08EA545
:103710000E94F00561E08EA50E94C2058FA587FD7D
:1037200090CF61E00E94F00561E08FA50E94C20584
:1037300088CFDF91CF911F910F91FF90EF90DF9095
:10374000CF9008951F93CF93DF9385ED8093BC00B6
:103750008091C9029091CA02A091CB02B091CC0293
:103760000796A11DB11D23E0B695A795979587955E
:103770002A95D1F72091BC0024FD03C010921103BB
:1037800052C04091C9025091CA026091CB0270911F
:10379000CC02452B462B472B69F30097A105B105B9
:1037A00041F02AE22A95F1F700C00197A109B10979
:1037B000E1CF8091C802C1E0C093C702882399F18C
:1037C000D091B8001091BA008091BC008A7B8093A0
:1037D000BC0060E084E10E94C20560E085E10E94D7
:1037E000C20510921103C09313031092120361E0FB
:1037F00084E10E94C20561E085E10E94C2058091DA
:10380000B9008E7F8093B9008091B9008D7F80933D
:10381000B90088E48093B80085E48093BC001093DD
:10382000BA00D093B800DF91CF911F9108951F92F5
:103830000F920FB60F9211242F933F938F939F9364
:10384000AF93BF9380915F0390916003A091610358
:10385000B091620330915E0323E0230F2D3758F5BA
:103860000196A11DB11D20935E0380935F03909389
:103870006003A0936103B09362038091630390910E
:103880006403A0916503B09166030196A11DB11D6B
:103890008093630390936403A0936503B0936603DE
:1038A000BF91AF919F918F913F912F910F900FBE3C
:1038B0000F901F90189526E8230F0296A11DB11DA9
:1038C000D2CF1F920F920FB60F9211240BB60F9208
:1038D0002F933F934F935F936F937F938F939F9318
:1038E000AF93BF93EF93FF9387E693E00E941F0986
:1038F000FF91EF91BF91AF919F918F917F916F91C8
:103900005F914F913F912F910F900BBE0F900FBE83
:103910000F901F9018951F920F920FB60F921124BF
:103920000BB60F922F938F939F93EF93FF93E0919A
:103930007703F09178038081E0917D03F0917E031D
:1039400082FD1DC09081809180038F5F8F732091D5
:103950008103821741F0E0918003F0E0E959FC4FC8
:10396000958F80938003FF91EF919F918F912F917D
:103970000F900BBE0F900FBE0F901F901895808177
:10398000F2CF1F920F920FB60F9211240BB60F9227
:103990002F933F934F935F936F937F938F939F9357
:1039A000AF93BF93EF93FF9384E094E00E941F09CD
:1039B000FF91EF91BF91AF919F918F917F916F9107
:1039C0005F914F913F912F910F900BBE0F900FBEC3
:1039D0000F901F9018951F920F920FB60F921124FF
:1039E0000BB60F922F938F939F93EF93FF93E091DA
:1039F0001404F09115048081E0911A04F0911B04E5
:103A000082FD1DC0908180911D048F5F8F73209176
:103A10001E04821741F0E0911D04F0E0EC5FFB4FC3
:103A2000958F80931D04FF91EF919F918F912F911E
:103A30000F900BBE0F900FBE0F901F9018958081B6
:103A4000F2CF1F920F920FB60F9211240BB60F9266
:103A50002F933F934F935F936F937F938F939F9396
:103A6000AF93BF93EF93FF938091B900887F803627
:103A700009F44DC008F040C0883209F4A7C028F509
:103A8000803109F49BC0C8F4882309F4F7C088305A
:103A900009F494C0FF91EF91BF91AF919F918F91E5
:103AA0007F916F915F914F913F912F910F900BBE3E
:103AB0000F900FBE0F901F901895883109F486C0A3
:103AC000803241F78093100314C0803409F49BC006
:103AD00040F48033B9F38833E9F68093100385EC22
:103AE000AEC0803509F483C0883509F494C08834A9
:103AF00089F60E94A21BCECF883909F48AC038F516
:103B0000883729F050F4883611F0803719F683E0B1
:103B10008093110310920F0355C0883809F479C0BF
:103B2000803919F0803809F0B5CF80910F038032C9
:103B300008F06FC0E0910F0381E08E0F80930F03B8
:103B40008091BB00F0E0E151FD4F80833BC0803BA2
:103B500039F0D0F4803A09F477C0883A09F09ACF66
:103B600084E0809311031092EE021092ED02F0E0D7
:103B7000E0E019958091ED0281110FC081E0809302
:103B8000ED021092CD0209C0803C09F4A8CF883C18
:103B900009F4A5CF883B09F07DCFE091EE0281E0EA
:103BA0008E0F8093EE02F0E0E353FD4F808180930F
:103BB000BB009091EE028091ED0229C08091360306
:103BC0008093BB0085EC8093BC0064CF909135035B
:103BD00080913403981758F5E091350381E08E0FFA
:103BE00080933503F0E0EC5EFC4F8081E9CFE091FB
:103BF000350381E08E0F809335038091BB00F0E0A8
:103C0000EC5EFC4F808390913503809134039817CC
:103C1000C8F285E8D8CFE091350381E08E0F80931C
:103C200035038091BB00F0E0EC5EFC4F8083809117
:103C3000130381115ECF81E08093120384EA8093A5
:103C4000BC001092110326CF85EC8093BC0010922B
:103C5000110380910F03803230F4E0910F03F0E004
:103C6000E151FD4F108260910F0370E08FEE92E002
:103C7000F0E0E0E0199510920F030CCF10921003C2
:103C800038CF1F920F920FB60F9211240BB60F92DE
:103C90002F933F934F935F936F937F938F939F9354
:103CA000AF93BF93EF93FF9348E251E064E271E07A
:103CB00090E080E00E94BE16FF91EF91BF91AF911E
:103CC0009F918F917F916F915F914F913F912F9134
:103CD0000F900BBE0F900FBE0F901F9018951F9264
:103CE0000F920FB60F9211240BB60F922F933F93A2
:103CF0004F935F936F937F938F939F93AF93BF93F4
:103D0000EF93FF9348EA50E064EA70E083E090E0CC
:103D10000E94BE16FF91EF91BF91AF919F918F913D
:103D20007F916F915F914F913F912F910F900BBEBB
:103D30000F900FBE0F901F9018951F920F920FB605
:103D40000F9211240BB60F922F933F934F935F93D3
:103D50006F937F938F939F93AF93BF93EF93FF9353
:103D600048E950E064E970E082E090E00E94BE160D
:103D7000FF91EF91BF91AF919F918F917F916F9143
:103D80005F914F913F912F910F900BBE0F900FBEFF
:103D90000F901F9018951F920F920FB60F9211243B
:103DA0000BB60F922F933F934F935F936F937F9335
:103DB0008F939F93AF93BF93EF93FF9348E850E0A7
:103DC00064E870E081E090E00E94BE16FF91EF9100
:103DD000BF91AF919F918F917F916F915F914F9123
:103DE0003F912F910F900BBE0F900FBE0F901F9021
:103DF0001895CF92DF92EF92FF920F931F93E82FC7
:103E0000F92F05C0015011092109310961F1908193
:103E100096239417B9F305C00150110921093109FE
:103E200011F1908196239413F7CFC12CD12CE12C62
:103E3000F12C0AC08FEFC81AD80AE80AF80A0C1544
:103E40001D052E053F0579F080818623841791F3A7
:103E50006C2D7D2D8E2D9F2D1F910F91FF90EF903A
:103E6000DF90CF90089560E070E080E090E01F91D7
:103E70000F91FF90EF90DF90CF90089510926A031A
:103E80001092690348EE53E060E070E040936B03EA
:103E900050936C0360936D0370936E038DE292E018
:103EA000909368038093670325E331E030937403B4
:103EB0002093730324E331E030937603209375035A
:103EC00020E331E0309378032093770321E331E05E
:103ED00030937A032093790322E331E030937C031B
:103EE00020937B0326E331E030937E0320937D0310
:103EF0001092800310928103109282031092830328
:103F00001092070410920604409308045093090489
:103F100060930A0470930B04909305048093040447
:103F200085EC90E0909311048093100484EC90E071
:103F3000909313048093120480EC90E09093150406
:103F40008093140481EC90E09093170480931604FE
:103F500082EC90E0909319048093180486EC90E032
:103F600090931B0480931A0410921D0410921E0457
:103F700010921F041092200480917C05803308F079
:103F800034C191E0980F90937C058093E90490E010
:103F9000FC01EE0FFF1FE80FF91FE451FB4F88EB08
:103FA0009BE0928381831092A5041092A40420E8E0
:103FB00030E03093A7042093A60480EA90E0909329
:103FC000A9048093A8043093AB042093AA0490938F
:103FD000AD048093AC041092B8041092AF04109218
:103FE000AE041092B1041092B00481E08093B70443
:103FF0008093B6042FEF3FEF3093B5042093B404C1
:104000003093B3042093B2048093B9041092BA049D
:104010001092BC041092BB041092D70485E28093E6
:10402000D80480E38093D90481E38093DA0410926A
:10403000DC041092DB041092DE041092DD04109276
:10404000DF041092E0041092E1041092E204109256
:10405000E3041092E40481EA94E09093C204809314
:10406000C104EAE6F8E0E491F0E0EE0FFF1FE15E44
:10407000F74F859194919093C0048093BF04EAE038
:10408000F8E084918093D504E9E6F8E0E491F0E06B
:10409000EE0FFF1FE15EF74F259134913093BE0480
:1040A0002093BD04E9E0F8E0E491E093D304E095C7
:1040B000E093D404E82FE095E093D6041092E50451
:1040C0001092E6041092E7048FE392E09093A30429
:1040D0008093A20480917C05803308F08AC091E02F
:1040E000980F90937C058093FE0590E0FC01EE0F05
:1040F000FF1FE80FF91FE451FB4F88EB9BE0928311
:10410000818387E18093F7058BE08093F80581E058
:104110008093FD0585E18093EC0584E18093ED05B6
:1041200084E690E09093F0058093EF0560E085E1F0
:104130000E94F00560E08091ED050E94F00560E0CE
:104140008091EC050E94C20560E08091ED050E941F
:10415000C20510927F05109283051092820510927D
:1041600084058FE692E090937E0580937D05E9E9D2
:10417000F5E085ED95E01082148213821582369663
:104180008E179F07C1F78BE092E09093E005809334
:10419000DF0587E092E09093E2058093E10584E0FB
:1041A0008093E3058093E4058FE092E09093DE0531
:1041B0008093DD058AE090E09093E6058093E50525
:1041C00084EF91E09093E8058093E7051092EB056A
:1041D0001092EA051092D9051092DA051092DB05CB
:1041E0001092DC051092E90508958FEF8093E904A1
:1041F000DACE8FEF8093FE0584CFCF93DF931F92AB
:10420000CDB7DEB7789484B5826084BD84B5816013
:1042100084BD85B5826085BD85B5816085BD809191
:104220006E00816080936E00109281008091810009
:104230008260809381008091810081608093810001
:10424000809180008160809380008091B1008460C3
:104250008093B1008091B00081608093B000809124
:1042600091008260809391008091910081608093A1
:104270009100809190008160809390008091A100D6
:1042800082608093A1008091A10081608093A10051
:104290008091A00081608093A000809121018260C4
:1042A000809321018091210181608093210180917F
:1042B000200181608093200180917A008460809346
:1042C0007A0080917A00826080937A0080917A00EF
:1042D000816080937A0080917A00806880937A0070
:1042E0001092C10062E087E20E94F00587E20E941E
:1042F0009905892B09F4C4C18AE090E090933F03AB
:1043000080933E0389E090E09093390380933803D3
:1043100088E090E0909341038093400340E050E0B8
:10432000BA0182EA94E00E94931A84E297E00E9424
:104330007F0F87E197E00E947F0F8CEE96E00E944E
:104340007F0F80EC8983BE016F5F7F4F82EA94E02C
:104350000E94161012E01093E80460E082EA94E0F4
:104360000E9486106FEF7FEF82EA94E00E940B15A7
:104370001092B5041092B4041092B3041092B204D7
:1043800061E084E00E94F00561E084E00E94C205E3
:104390008AE090E09093AF048093AE049093B104D0
:1043A0008093B00481E08093B90461E082EA94E0F4
:1043B0000E9486101093B6041093B70468E772E069
:1043C00082EA94E00E94F01968E57BE180E090E0E9
:1043D0000E94FB076FEF7FEF82EA94E00E940B15CB
:1043E00084E094E00E94D90487E693E00E94D90417
:1043F00065E872E084E094E00E947F1A8091FE05F7
:10440000803308F052C061E08DE30E94F005809196
:10441000FE05282F30E0F901EE0FFF1FE20FF31F1A
:10442000E451FB4F9081907C9D6390831092FF0537
:10443000109200062CE0622F0E94222B829FB00176
:10444000112430E020E0AB01420F531FFA01EE0FC0
:10445000FF1FE40FF51FE451FB4F908196FD17C03D
:104460002F5F3F4F2C30310571F7813009F017C1B4
:104470001092800082E0809381001092850010925B
:104480008400B19A80916F00826080936F00E09108
:10449000FE058E2F90E0FC01EE0FFF1FE80FF91FC5
:1044A000E451FB4F80818064808390E080E00E9433
:1044B000740461E088E20E94F00510913E0361E01F
:1044C000812F0E94F0050091380361E0802F0E9447
:1044D000F00561E088E20E94C20560E0812F0E9441
:1044E000C20560E0802F0E94C20561E08EE30E9459
:1044F000F00561E08AE20E94F00561E08FE30E942E
:10450000F00561E080E40E94F00560E08EE30E9427
:10451000C20560E08AE20E94C20560E08FE30E946B
:10452000C20560E080E40E94C20561E089E10E946A
:10453000F00561E08EE10E94F00561E08FE10E94EC
:10454000F00561E08DE20E94F00561E08CE20E94DE
:10455000F00561E08EE20E94F00560E08DE20E94CD
:10456000C20560E08CE20E94C20560E08EE20E941B
:10457000C20560E082E00E94F00560E087E30E94EF
:10458000F00561E082E40E94F00562E081E20E94B1
:10459000F00560E084E40E94F00560E08091F7059A
:1045A0000E94F00561E08091F7050E94C20510921B
:1045B000F9051092FA051092FB051092FC0560E0D7
:1045C00083E40E94F00561E083E10E94F00560E071
:1045D000809140030E94F0058AE08093EE050E94DE
:1045E000D10660E0812F0E94C2050E94841740E03E
:1045F00060E080E00E94D41764E670E082E00E94F0
:10460000881784E40E94BE070A969093470380931C
:10461000460322242A94322C6AE0C62ED12C81E053
:104620008093E9050E942E080091D9051091DA05C2
:104630002091DB053091DC05AB01BC01401B510B27
:10464000620B730B8091E5059091E605B0E0A0E068
:1046500084179507A607B70708F0F8C110E0809106
:10466000E305181708F047C0E091DF05F091E00579
:10467000E10FF11D62E080810E94F0051F5FEFCF26
:1046800087E090E090933F0380933E0388E090E0C2
:1046900090933903809338038AE090E03BCE8230D8
:1046A00061F4109290008093910010929500109206
:1046B000940088BB80937100EACE833069F4109235
:1046C000A00082E08093A1001092A5001092A400A7
:1046D00089BB80937200DBCE8111D9CE109220016C
:1046E00082E08093210110922501109224018ABB5F
:1046F00080937300CCCE512C8091E405581608F0BD
:1047000063C0A52CB12CE091E105F091E205EA0D22
:10471000FB1D61E080810E94F005E091E105F091D0
:10472000E205EA0DFB1D60E080810E94C20581E088
:1047300090E0A0E0B0E0052C04C0880F991FAA1FEC
:10474000BB1F0A94D2F73C014C0180949094412CF9
:104750008091E305481608F5042D10E0E091DF058F
:10476000F091E005E00FF11F80810E9499050C5F38
:104770001F4F000F111FF801E358FA4F892B41F426
:104780008081918186299729918380834394E0CF0A
:104790008081918188219921F7CFE091E105F09105
:1047A000E205EA0DFB1D61E080810E94C205809157
:1047B000E1059091E205A80EB91E60E0F501808147
:1047C0000E94F005539498CF0DE715E05801F501CC
:1047D000878D90A1892B21F4148E368E258E11A2FF
:1047E000F6E0AF0EB11C89EB95E08A159B0579F7D1
:1047F000912C8091E305981608F053C0812C692C08
:10480000712C660C771CF301EB57FA4F3F01209196
:10481000E405821608F043C0F30160817181082C21
:1048200002C0769567950A94E2F7929E9001112452
:10483000280D311DEDE7F5E080E0458D568D2417FC
:10484000350709F457C48F5F36968A30B1F760FF99
:1048500024C0EDE7F5E090E080E0448D411118C000
:10486000E091DD05F091DE05E20FF31F408156E097
:10487000589FF001599FF00D1124E358FA4F448FCF
:10488000368F258F10A2178E61E00E943A0805C06E
:10489000019636968A30910501F78394B8CF9394A8
:1048A000A8CF912CF80181A18111982E0A5F1F4F8A
:1048B000A016B106B9F70E942E086093D90570932F
:1048C000DA058093DB059093DC05992009F4BEC0DE
:1048D00080919E05882309F4B9C080919C05909130
:1048E0009D05019709F0B2C01091990510935D03E1
:1048F0001111B1C080915503909156030497E9F4CA
:10490000109256031092550344E050E063E072E0C9
:1049100081E593E00E944A2B892B79F462E370E0F1
:1049200082E00E9488178091500391E0892780934C
:104930005003109258039093570387E693E00E9428
:10494000FF08892B31F087E693E00E94DD08809311
:104950000202809102028C3409F0AFC080915803AA
:1049600091E08927809358039093570380915703D0
:1049700090915803992309F4B9C0882311F16CE28E
:1049800071E082E00E94881764E085E292E00E9474
:10499000A00660E078EF82EA94E00E940B1560E0E8
:1049A00080913E030E94C2050E94841781E090E03E
:1049B0000E94E9174FEF60E080E00E94D417109248
:1049C000570382E00E949905082F87E30E9499050A
:1049D000182F011103C0882309F482C00E942E08F9
:1049E0008090590390905A03A0905B03B0905C03B1
:1049F00086169706A806B90608F072C0402F50E048
:104A000070E060E02AE084E094E00E94FF19412F0A
:104A100050E070E060E02AE084E094E00E94FF193A
:104A200065E772E084E094E00E94F01940E060E005
:104A30008FEF0E94D41764E670E083E00E9488172D
:104A400088E7809302020E94AE09E9CD1092E90541
:104A500010925D034FCF0E942E086053784F8F4F06
:104A60009F4F6093590370935A0380935B03909315
:104A70005C0380915803811105C081E08093580345
:104A8000809357031A3221F4309256032092550333
:104A900080915503909156039C012F5F3F4F3093B7
:104AA0005603209355038F5A9C4FFC01108362E3F9
:104AB00070E081E00E9488171DCF8D3639F4809117
:104AC0004F0391E0892780934F0350CF873709F038
:104AD0004DCF80914E0391E0892780934E0346CFBE
:104AE0004FEF60E080E00E94D417AACF882369F0DE
:104AF000109257036FEF7FEF82EA94E00E940B154C
:104B000040E06FEF80E00E94D4170E942E080091D1
:104B10004A0310914B0320914C0330914D0306172B
:104B200017072807390708F06DC185E40E94BE0702
:104B300024EF31E0DC010E943E2B20E034E040E035
:104B400050E00E947C28CA01B9010E94FB2920E0A4
:104B500030E048EC52E40E9451294B015C010E9474
:104B60002C19882341F08091F8058B3079F018F0EA
:104B70008551823080F167E872E084E094E00E9421
:104B8000F01960E070E080EC9FE707C06091F305EA
:104B900070E090E080E00E94F9290E94C3297093A0
:104BA0003D0360933C030E942C19882349F08091B7
:104BB000F8058B30B1F120F08551823008F4D2C174
:104BC00067E872E084E094E00E94F01960E070E031
:104BD00080EC9FE72DC01091F305612F6F7770E097
:104BE00090E080E00E94FB2920E030E040E853E4C0
:104BF0000E94B02A2B013C016091F40570E090E026
:104C000080E00E94FB29A30192010E94E02820E09D
:104C100030E040E251E40E94512917FFBECF905886
:104C2000BCCF6091F10570E090E080E00E94F9292E
:104C30000E94C32970933B0360933A0381E0809301
:104C4000B90461E082EA94E00E94861082E08093D9
:104C5000B6048093B704D092AF04C092AE04D09251
:104C6000B104C092B004EE24EA94FE2C09E110E0F5
:104C70002CE330E045E050E067E370E082EA94E046
:104C80000E94D90C61E972E082EA94E00E94F01976
:104C900080914803909149030E944B1A67E972E0A2
:104CA00082EA94E00E947F1AD092AF04C092AE04D0
:104CB00088E290E09093B1048093B0042BE430E05C
:104CC00043E250E06BE470E082EA94E00E94D90C89
:104CD0006CE972E082EA94E00E94F019A501940167
:104CE000C501B4010E941D2B62EA72E081111BC054
:104CF00024013501E89477F82FEF3FEF4FE75FE7A6
:104D0000C301B2010E941D2B81114DC12FEF3FEF56
:104D10004FE75FE7C301B2010E944C2918160CF05F
:104D200042C166EA72E082EA94E00E94F01965E707
:104D300072E082EA94E00E94F019D092AF04C0922F
:104D4000AE0486E490E09093B1048093B004EE2426
:104D5000EA94FE2C09E110E025E530E041E450E062
:104D600066E470E082EA94E00E94D90C6EEA72E098
:104D700082EA94E00E94F01980913C0390913D03F7
:104D80000E944B1A65EB72E082EA94E00E947F1A5F
:104D9000D092AF04C092AE0484E690E09093B10448
:104DA0008093B0042AE530E04FE550E06CE370E01A
:104DB00082EA94E00E94D90C68EB72E082EA94E007
:104DC0000E94F01980913A0390913B030E944B1A84
:104DD0006EEB72E082EA94E00E947F1A80914A03AF
:104DE00090914B03A0914C03B0914D03805F984D7F
:104DF000AF4FBF4F80934A0390934B03A0934C0354
:104E0000B0934D0384E40E94BE079C019093490334
:104E10008093480380913E0340914603509147039D
:104E20004217530724F090914F0360E0911161E025
:104E30000E94C2058091000290910102019709F041
:104E400030C161E089E10E94C20560E08EE10E940C
:104E5000C20560E08FE10E94C2050E942E08009109
:104E600042031091430320914403309145030617F8
:104E700017072807390708F06DC00E942E086853ED
:104E80007F4F8F4F9F4F60934203709343038093F4
:104E900044039093450360E083E10E94C20583E0F0
:104EA00090E00197F1F761E083E10E94C20583E29F
:104EB00090E00197F1F760E083E10E94C2058091E4
:104EC0004003909141039927FC01E752F84F649108
:104ED000FC01E75CF74FE491F0E0EE0FFF1FE758AD
:104EE000F84F8591949100E412E42FE030E0462FD2
:104EF0000E94F91E611571058105910529F06F5F0A
:104F00007F4F8F4F9F4F9F700091000210910102C1
:104F10000E94FB2926E933E44BE05DE30E94B02ABE
:104F200020E030E040E05FE30E94B02A0E94C32905
:104F30006A3071050CF0BFC00130110559F40E94B0
:104F4000D10662E083E292E00E94A00690E080E059
:104F50000E94E91780914E03882309F4B9C00E948A
:104F600084176ECD6091F10570E090E080E00E94C2
:104F7000F92920E030E040E853E40E94B02A2B01F8
:104F80003C016091F20570E090E080E00E94FB2916
:104F9000A30192010E94E02820E030E040E251E4C9
:104FA0000E94512945CE2FEF3FEF4FE75FE4C50147
:104FB000B4010E94AB2A18161CF46AEA72E0B3CE60
:104FC0002FEF3FEF4FE75FECC501B4010E944C2982
:104FD00087FDF3CF20E030E0A901C501B4010E94B4
:104FE0004C2987FF09C06DE282EA94E00E946213B7
:104FF000B7FAB094B7F8B0942AE037ED43EA5BE330
:10500000C501B4010E94E0282B013C010E94CA297D
:105010004B015C010E94F9299B01AC01C301B20163
:105020000E94DF282B013C012AE0B501A40182EA9D
:1050300094E00E94FF196EE282EA94E00E946213FB
:1050400020E030E040E251E4C301B2010E94B02A06
:105050002B013C010E94CA294B01B12CA12C2AE052
:10506000B501A40182EA94E00E94FF19C501B401D0
:105070000E94F9299B01AC01C301B2010E94DF2803
:1050800020E030E040E251E40E94B02A0E94CA29A8
:10509000AB0170E060E02AE082EA94E00E94FF1930
:1050A00046CE60E089E10E94C20560E08EE10E9488
:1050B000C20561E0CFCE012B09F04CCF0E94D10692
:1050C00064E08FE192E00E94A00681E090E040CF92
:1050D00083E40E94BE078B3F91050CF040CF81E234
:1050E0000E949905892B09F43ACF84E690E00E944A
:1050F0007404A6CC6170C9CB052E97FB1EF40094F6
:105100000E94932857FD07D00E94AE2807FC03D0C9
:105110004EF40C94932850954095309521953F4F2F
:105120004F4F5F4F089590958095709561957F4F93
:105130008F4F9F4F08950E94D028A59F900DB49F38
:10514000900DA49F800D911D11240895B7FF0C941C
:105150009B280E949B28821B930B0895A1E21A2E84
:10516000AA1BBB1BFD010DC0AA1FBB1FEE1FFF1F0B
:10517000A217B307E407F50720F0A21BB30BE40B5B
:10518000F50B661F771F881F991F1A9469F76095A2
:105190007095809590959B01AC01BD01CF0108955C
:1051A000A29FB001B39FC001A39F700D811D112468
:1051B000911DB29F700D811D1124911D08955058AD
:1051C000BB27AA270E94F7280C94712A0E94632A01
:1051D00038F00E946A2A20F039F49F3F19F426F42F
:1051E0000C94602A0EF4E095E7FB0C945A2AE92F00
:1051F0000E94822A58F3BA1762077307840795073B
:1052000020F079F4A6F50C94A42A0EF4E0950B2E68
:10521000BA2FA02D0B01B90190010C01CA01A00108
:105220001124FF27591B99F0593F50F4503E68F163
:105230001A16F040A22F232F342F4427585FF3CFA4
:10524000469537952795A795F0405395C9F77EF475
:105250001F16BA0B620B730B840BBAF09150A1F0BE
:10526000FF0FBB1F661F771F881FC2F70EC0BA0F44
:10527000621F731F841F48F4879577956795B795CC
:10528000F7959E3F08F0B0CF9395880F08F09927C7
:10529000EE0F9795879508950E94362A08F481E0CD
:1052A00008950E9465290C94712A0E946A2A58F078
:1052B0000E94632A40F029F45F3F29F00C945A2A97
:1052C00051110C94A52A0C94602A0E94822A68F33A
:1052D0009923B1F3552391F3951B550BBB27AA27AF
:1052E00062177307840738F09F5F5F4F220F331FE9
:1052F000441FAA1FA9F335D00E2E3AF0E0E832D0B1
:1053000091505040E695001CCAF72BD0FE2F29D0B3
:10531000660F771F881FBB1F261737074807AB0785
:10532000B0E809F0BB0B802DBF01FF2793585F4FFA
:105330003AF09E3F510578F00C945A2A0C94A52A15
:105340005F3FE4F3983ED4F3869577956795B795DC
:10535000F7959F5FC9F7880F911D9695879597F9E7
:105360000895E1E0660F771F881FBB1F6217730760
:105370008407BA0720F0621B730B840BBA0BEE1F75
:1053800088F7E09508950E94CA296894B1110C9499
:10539000A52A08950E948A2A88F09F5798F0B92F6D
:1053A0009927B751B0F0E1F0660F771F881F991F5A
:1053B0001AF0BA95C9F714C0B13091F00E94A42A2E
:1053C000B1E008950C94A42A672F782F8827B85F3E
:1053D00039F0B93FCCF3869577956795B395D9F7B2
:1053E0003EF490958095709561957F4F8F4F9F4FBC
:1053F0000895E89409C097FB3EF4909580957095C8
:1054000061957F4F8F4F9F4F9923A9F0F92F96E910
:10541000BB279395F695879577956795B795F11185
:10542000F8CFFAF4BB0F11F460FF1BC06F5F7F4F22
:105430008F4F9F4F16C0882311F096E911C0772334
:1054400021F09EE8872F762F05C0662371F096E83D
:10545000862F70E060E02AF09A95660F771F881F0C
:10546000DAF7880F9695879597F90895990F0008B0
:10547000550FAA0BE0E8FEEF16161706E807F90726
:10548000C0F012161306E407F50798F0621B730BC1
:10549000840B950B39F40A2661F0232B242B252B42
:1054A00021F408950A2609F4A140A6958FEF811DE5
:1054B000811D089597F99F6780E870E060E0089586
:1054C0009FEF80EC089500240A941616170618061C
:1054D0000906089500240A941216130614060506F8
:1054E0000895092E0394000C11F4882352F0BB0F89
:1054F00040F4BF2B11F460FF04C06F5F7F4F8F4FEC
:105500009F4F089557FD9058440F551F59F05F3F26
:1055100071F04795880F97FB991F61F09F3F79F0D5
:1055200087950895121613061406551FF2CF469557
:10553000F1DF08C0161617061806991FF1CF8695D9
:105540007105610508940895E894BB2766277727BD
:10555000CB0197F908950E94362A08F48FEF089539
:105560000E94C32A0C94712A0E94632A38F00E9478
:105570006A2A20F0952311F00C945A2A0C94602A80
:1055800011240C94A52A0E94822A70F3959FC1F3DE
:10559000950F50E0551F629FF001729FBB27F00DE1
:1055A000B11D639FAA27F00DB11DAA1F649F662736
:1055B000B00DA11D661F829F2227B00DA11D621F85
:1055C000739FB00DA11D621F839FA00D611D221F3F
:1055D000749F3327A00D611D231F849F600D211D23
:1055E000822F762F6A2F11249F5750409AF0F1F0A6
:1055F00088234AF0EE0FFF1FBB1F661F771F881F0F
:1056000091505040A9F79E3F510580F00C945A2AC2
:105610000C94A52A5F3FE4F3983ED4F386957795E2
:105620006795B795F795E7959F5FC1F7FE2B880FB4
:10563000911D9695879597F908950E94362A880BB3
:10564000990B0895991B79E004C0991F961708F0EB
:10565000961B881F7A95C9F780950895EE0FFF1F56
:10566000881F8BBF0790F691E02D19940E94D028D7
:10567000332312F48A1B9B0B0C94402B0E94D028DE
:10568000B7FF0895821B930B089581E090E0F89492
:105690000C94582BFB01DC014150504030F08D91AF
:1056A0000190801919F40020B9F7881B990B08950F
:0456B000F894FFCF9C
:1056B40001007831323341091C3A39061836384131
:1056C40042434233363923323538303134372A6D48
:1056D400783F733D3F7F383F39000000004109A106
:1056E40008CE088E09FF08DD08F1080000000062FA
:1056F40013A108BB16BA16DE0B6D0F3B0FD20E5169
:105704000E920E0E161C118610C10B6F0DE00D5E6D
:105714000D0B1593143414931A5F0B0000000096BC
:10572400089A089E080D0A0048656C6C6F204E614B
:105734006E697421002A0052656164206661696C97
:1057440000434F323A20002070706D004261743A79
:1057540020006E616E00696E66006F766600746587
:105764006D703A200020430068756D3A20002025B2
:02577400000033
:00000001FF
