:020000023000CC
:10E000000D9489F10D94B2F10D94B2F10D94B2F129
:10E010000D94B2F10D94B2F10D94B2F10D94B2F1F0
:10E020000D94B2F10D94B2F10D94B2F10D94B2F1E0
:10E030000D94B2F10D94B2F10D94B2F10D94B2F1D0
:10E040000D94B2F10D94B2F10D94B2F10D94B2F1C0
:10E050000D94B2F10D94B2F10D94B2F10D94B2F1B0
:10E060000D94B2F10D94B2F10D94B2F10D94B2F1A0
:10E070000D94B2F10D94B2F10D94B2F10D94B2F190
:10E080000D94B2F10D94B2F10D94B2F10D94B2F180
:10E090000D94B2F10D94B2F10D94B2F10D94B2F170
:10E0A0000D94B2F10D94B2F10D94B2F10D94B2F160
:10E0B0000D94B2F10D94B2F10D94B2F10D94B2F150
:10E0C0000D94B2F10D94B2F10D94B2F10D94B2F140
:10E0D0000D94B2F10D94B2F10D94B2F10D94B2F130
:10E0E0000D94B2F12A00593D506F727420626C6930
:10E0F0006E6B00563D73686F7720696E746572723F
:10E1000075707420566563746F727300523D447568
:10E110006D702052414D00513D51756974004C3D68
:10E120004C69737420492F4F20506F7274730048EC
:10E130003D48656C7000463D44756D7020464C410D
:10E14000534800453D44756D7020454550524F4D34
:10E1500000423D426C696E6B204C454400403D4599
:10E160004550524F4D2074657374003F3D435055E8
:10E1700020737461747300303D5A65726F2061645E
:10E18000647200504F5254004545206572722063FE
:10E190006E743D0052656164696E672045450057A5
:10E1A00072697474696E672045450020004D75736F
:10E1B000742062652061206C657474657200506F14
:10E1C0007274206E6F7420737570706F72746564F2
:10E1D000005768617420706F72743A006A6D702025
:10E1E00000726A6D702020006E6F20766563746F18
:10E1F00072005623202020414444522020206F707A
:10E2000020636F64652020202020696E737472750E
:10E210006374696F6E2061646472202020496E749B
:10E2200065727275707400352E342E3000322E30C7
:10E230002E30004E6F762032392032303231004C91
:10E240006F636B20667573652020203D2000457844
:10E25000742066757365202020203D200048696782
:10E260006820667573652020203D20004C6F772064
:10E2700066757365202020203D20004350552049BD
:10E28000442020202020203D200047434320566585
:10E290007273696F6E203D2000415652204C6962B6
:10E2A00043205665723D20005F5F4156525F4152E8
:10E2B00043485F5F3D2000435055205479706520EE
:10E2C0002020203D2000436F6D70696C6564206FD5
:10E2D0006E203D20004875683F00426F6F746C6F80
:10E2E000616465723E0041726475696E6F20657885
:10E2F000706C6F7265722073746B353030563220DB
:10E300006279204D4C530041546D6567613235365A
:10E31000300011241FBECFEFD1E2DEBFCDBF01E040
:10E320000CBF12E0A0E0B2E0E4E2F7EF03E00BBFC5
:10E3300002C007900D92A430B107D9F722E0A4E003
:10E34000B2E001C01D92A231B207E1F70F94EFF2E3
:10E350000D9490FB01E20EBF0FEF0DBF11241FBE05
:10E360000D94EFF20D9400F08093C6008091C000F0
:10E3700086FFFCCF8091C00080648093C000089528
:10E3800020E030E02817390749F0EFECF7E031974B
:10E39000F1F700C000002F5F3F4FF4CF0895CF93F7
:10E3A000DF93EC01C60FD11DCE01A0E0B0E0ABBF02
:10E3B000FC018791882321F021960F94B4F1F4CFCA
:10E3C000DF91CF9108958DE00F94B4F18AE00D9420
:10E3D000B4F10F94CFF10D94E3F1CF93DF93EC01FF
:10E3E0008991882319F00F94B4F1FACFDF91CF917E
:10E3F0000895CF93C82F982F92959F7080E3890F2F
:10E400008A3310F087E3890F0F94B4F1CF7080E363
:10E410008C0F8A3310F087E38C0FCF910D94B4F1F9
:10E420000F931F93CF93DF93EC018B0185369105FA
:10E430001CF4633071054CF0CE0164E670E00F947B
:10E4400029FB80E3860F0F94B4F1CB30D1051CF487
:10E45000023011056CF0CE0164E670E00F9429FBE8
:10E460006AE070E00F9429FB80E3860F0F94B4F10B
:10E47000CE016AE070E00F9429FB805DDF91CF91BF
:10E480001F910F910D94B4F18091C00087FFFCCFD4
:10E490008091C6000895CF93C82F60E083E891EE85
:10E4A0000F94CFF18C2F0F94B4F1CF910D94E3F131
:10E4B0002F923F924F925F926F927F928F929F9294
:10E4C000AF92BF92CF92DF92EF92FF920F931F9382
:10E4D000CF93DF93CDB7DEB763970FB6F894DEBF67
:10E4E0000FBECDBF082F6A017B0180E1382E10E0FE
:10E4F0004E0181E1880E911C91E0C916D104E90614
:10E50000F10418F08E2D0F94F9F18D2D0F94F9F17F
:10E510008C2D0F94F9F180E20F94B4F18DE20F94F9
:10E52000B4F180E20F94B4F11982FE0131965F01DB
:10E53000260137012E2EBB8A013051F028F002301F
:10E5400059F4F201108108C06BBEF201179104C0AA
:10E55000C2010F947AFB182F812F0F94F9F180E2FA
:10E560000F94B4F180EE810F8F3518F4F50110830C
:10E5700003C08EE2F50180839FEF491A590A690AA8
:10E58000790AEFEFAE1ABE0AA814B904A9F6F0E1B1
:10E59000CF0ED11CE11CF11C198A822D9B890F948E
:10E5A000EDF10F94E3F13A943110A6CF63960FB6D4
:10E5B000F894DEBF0FBECDBFDF91CF911F910F91B9
:10E5C000FF90EF90DF90CF90BF90AF909F908F9093
:10E5D0007F906F905F904F903F902F900895CF93D2
:10E5E000DF93CDB7DEB7CF52D1400FB6F894DEBF80
:10E5F0000FBECDBF01E20EBF0FEF0DBF94B7F89471
:10E60000A89514BE8091600088618093600010928C
:10E610006000789493FF05C0E0910402F091050238
:10E620001995279A2F9A8091C00082608093C0002C
:10E6300080E18093C40088E18093C100000000E085
:10E6400010E0C12CD12C7601B7EC8B2EBBE19B2EB8
:10E65000A12CB12C8091C00087FD26C001151105A9
:10E6600019F525E02A95F1F700003FEFC31AD30A08
:10E67000E30AF30A91E080E041E2C4164EE4D406D6
:10E68000E104F10408F490E0092F182FC701B60146
:10E69000A50194010F943DFB672B682B692BD1F6E4
:10E6A00085B1805885B9D6CF0F5F1F4F0130110556
:10E6B00011F00D94FFFAC65DDE4F19821882CA521E
:10E6C000D140E12CF12C612CB12CCA5DDE4F1982B6
:10E6D0001882C652D140CE5DDE4F188219821A824E
:10E6E0001B82C252D140212C312C210120E030E08C
:10E6F00080E001301105C1F041E052E16AE770E0CD
:10E700009091C00097FD10C04150510961097109F5
:10E71000B9F76BBFFA01479156914F3F5F4F61F3D5
:10E72000EE27FF270994E8CF9091C600C65DDE4F23
:10E73000A881B981CA52D1401196C65DDE4FB98316
:10E74000A883CA52D140913209F0F7C41A9708F051
:10E7500052C5BFEFEB1AFB0AE3E0EE16F10409F035
:10E760004CC5A5E0EA2EF12C09E110E081E20F94FE
:10E77000B4F101501109D1F70F94E3F1F1E0EF1A70
:10E78000F10891F710920E0210920F0210921002EF
:10E790001092110210920A0210920B0210920C02B7
:10E7A00010920D02109206021092070210920802B7
:10E7B0001092090260E086EE92EE0F94E9F11FEFED
:10E7C000F9E07F2E60E08AED92EE0F94CFF10F9486
:10E7D00044F2082F803608F00F75003230F0802F99
:10E7E0000F94B4F180E20F94B4F1063409F4CFC170
:10E7F00008F097C0003409F408C108F08BC000335A
:10E8000009F4EDC00F3309F092C462E08BE691EE9B
:10E810000F94E9F160E086EE92EE0F94E9F160E08A
:10E8200086EC92EE0F94CFF160E083E392EE0F94CA
:10E83000E9F160E087EB92EE0F94CFF160E087E0C2
:10E8400093EE0F94E9F160E088EA92EE0F94CFF135
:10E8500086E30F94B4F10F94E3F160E08AE892EE5E
:10E860000F94CFF160E087E292EE0F94E9F160E05F
:10E8700089E992EE0F94CFF160E08DE292EE0F9471
:10E88000E9F160E08BE792EE0F94CFF18EE10F9407
:10E89000F9F188E90F94F9F181E00F94F9F10F94FF
:10E8A000E3F160E08CE692EE0F94CFF1E0E0F0E06F
:10E8B0007092570084910F94F9F10F94E3F160E0A6
:10E8C0008DE592EE0F94CFF1E3E0F0E07092570007
:10E8D00084910F94F9F10F94E3F160E08EE492EEED
:10E8E0000F94CFF1E2E0F0E07092570084910F9422
:10E8F000F9F10F94E3F160E08FE392EE0F94CFF122
:10E90000E1E0F0E07092570084910F94F9F10F94D8
:10E91000E3F158CF023409F4F6C0053409F40DC10F
:10E9200006C4013509F497C168F5083409F453C1E8
:10E930000C3409F0FCC362E08EE191EE0F94E9F132
:10E9400081E40F944BF282E40F944BF283E40F9432
:10E950004BF284E40F944BF285E40F944BF286E47F
:10E960000F944BF287E40F944BF288E40F944BF230
:10E970008AE40F944BF28BE40F944BF28CE40F94E7
:10E980004BF220CF063509F470C1093509F4D5C220
:10E99000023509F0CCC362E08CE091EE0F94E9F10E
:10E9A00040910E0250910F0260911002709111027D
:10E9B00082E00F9458F280910E0290910F02A09184
:10E9C0001002B09111029F5FAF4FBF4F80930E02B4
:10E9D00090930F02A0931002B0931102F3CE62E065
:10E9E00087E791EE0F94E9F110920A0210920B0260
:10E9F00010920C0210920D0210920E0210920F0251
:10EA0000109210021092110275C062E08DE591EE35
:10EA10000F94E9F160E08FE991EE0F94E9F10F9422
:10EA2000E3F1E12CF12CC7018A519D41A0E0B0E057
:10EA3000ABBFFC0107910A32B9F0E11422E0F20603
:10EA400099F0602FC7010F9482FB011106C060E0AE
:10EA50008BEA91EE0F94CFF103C0802F0F94B4F1A5
:10EA6000FFEFEF1AFF0ADFCF0F94E3F10F94E3F10A
:10EA700060E084E991EE0F94E9F10F94E3F1C12C89
:10EA8000D12CE12CF12CC7018A519D41A0E0B0E0CE
:10EA9000ABBFFC0107910A32D9F0E11452E0F50650
:10EAA000B9F0C7010F947AFBB82E811106C060E05F
:10EAB0008BEA91EE0F94CFF102C00F94B4F1B0162F
:10EAC00019F03FEFC31AD30A4FEFE41AF40ADBCF71
:10EAD0000F94E3F10F94E3F160E088E891EE0F9476
:10EAE000CFF161E070E0C6010F9410F20F94E3F1F2
:10EAF0000F94E3F11092060210920702109208029E
:10EB0000109209025FCE62E081E591EE0F94E9F187
:10EB1000279A2F9A8091C00087FD0CC02F9884E619
:10EB200090E00F94C0F12F9A84E690E00F94C0F12A
:10EB3000F1CF12B80F9444F245CE62E083E491EE37
:10EB40000F94E9F14091060250910702609108028A
:10EB50007091090281E00F9458F280910602909121
:10EB60000702A0910802B09109029F5FAF4FBF4F0B
:10EB70008093060290930702A0930802B0930902C3
:10EB800081159041A105B10508F41CCEB3CF62E018
:10EB900086E391EE0F94E9F140910A0250910B0245
:10EBA00060910C0270910D0280E00F9458F28091F8
:10EBB0000A0290910B02A0910C02B0910D029F5F8E
:10EBC000AF4FBF4F80930A0290930B02A0930C02A9
:10EBD000B0930D02F7CD62E08FE291EE0F94E9F170
:10EBE00060E087E791EE0F94E9F160E08BE691EE4B
:10EBF0000F94E9F160E08DE591EE0F94E9F160E0AA
:10EC000081E591EE0F94E9F160E083E491EE0F94D9
:10EC1000E9F160E086E391EE0F94E9F160E08FE2C4
:10EC200091EE0F94E9F160E08EE191EE0F94E9F13D
:10EC300060E087E191EE0F94E9F160E08CE091EE05
:10EC40000F94E9F160E083EF90EE0F94E9F160E05A
:10EC500086EE90EE6FC262E087E191EE0F94E9F1EB
:10EC6000E12CF12C77247394DBC262E083EF90EE09
:10EC70000F94E9F160E087E093EE0F94E9F160E032
:10EC800082EF91EE0F94E9F1C85DDE4F1982188290
:10EC9000C852D140C25EDE4F188219821A821B828E
:10ECA000CE51D140C25EDE4F88819981AA81BB815D
:10ECB000CE51D140B695A79597958795C45DDE4F07
:10ECC00088839983AA83BB83CC52D140C85DDE4F31
:10ECD000A881B981C852D1401196C85DDE4FB98371
:10ECE000A883C852D14062E070E0CD010F9410F2C9
:10ECF00080E20F94B4F18DE20F94B4F180E20F94AE
:10ED0000B4F180E00F94F9F1C45DDE4F8881CC52FC
:10ED1000D1400F94F9F180E20F94B4F18DE30F9498
:10ED2000B4F180E20F94B4F1C25EDE4F28813981E4
:10ED30004A815B81CE51D1404BBFF901F790DA0196
:10ED4000C9010196A11DB11DABBFFC01E790DA011D
:10ED5000C9010296A11DB11DABBFFC01D790DA011C
:10ED6000C9010396A11DB11DABBFFC0107912C5F2A
:10ED70003F4F4F4F5F4FC25EDE4F288339834A8338
:10ED80005B83CE51D1408E2C912CA12CB12CBA2C6E
:10ED9000A92C982C88248F0C911CA11CB11C8E2DA1
:10EDA0000F94F9F180E20F94B4F18F2D0F94F9F1E3
:10EDB00080E20F94B4F1802F0F94F9F180E20F9468
:10EDC000B4F18D2D0F94F9F180E20F94B4F13FEF7F
:10EDD00083169306A104B10431F460E088EE91EE4D
:10EDE0000F94CFF19EC0D501C4018827907CAA273B
:10EDF000BB278115904CA105B10549F5750164014A
:10EE00005FE3D522EE24FF24C45DDE4F8880998025
:10EE1000AA80BB80CC52D1408C0C9D1CAE1CBF1C68
:10EE2000880C991CAA1CBB1C60E081EE91EE0F942B
:10EE3000CFF18D2D0F94F9F18C2D0F94F9F180E223
:10EE40000F94B4F18EE30F94B4F180E062C06EE0F1
:10EE50008622E89490F8AA24BB247CE0871674E903
:10EE60009706A104B10409F05CC04F2D417050E039
:10EE700060E070E0DA0199278827402F50E060E0D9
:10EE800070E0762F652F542F44274D0D511D611DC5
:10EE9000711D480F591F6A1F7B1F8F2D807F90E0C7
:10EEA000A0E0B0E031E1880F991FAA1FBB1F3A957F
:10EEB000D1F7840F951FA61FB71F2E2D2170C22ECC
:10EEC000D12CE12CF12C45E1CC0CDD1CEE1CFF1CFF
:10EED0004A95D1F7C80ED91EEA1EFB1E46015701FE
:10EEE000880C991CAA1CBB1C60E08CED91EE0F9461
:10EEF000CFF18E2D0F94F9F18D2D0F94F9F18C2D0A
:10EF00000F94F9F180E20F94B4F18EE30F94B4F111
:10EF10008A2D0F94F9F1892D0F94F9F1882D0F9412
:10EF2000F9F10F94E3F1C85DDE4F88819981C852F1
:10EF3000D140C99709F0B6CE45CC62E086EE90EE9E
:10EF40000F94E9F160E081ED91EE0F94CFF10F9411
:10EF500044F2082F0F75802F0F94B4F10F94E3F152
:10EF60008FEB800F8A3108F0DEC0063409F471C0DF
:10EF700098F4033409F441C038F4013419F102342F
:10EF800009F0CDC014B92BC0043409F445C00534D0
:10EF900009F0C5C01DB94FC00A3409F489C048F44E
:10EFA000073409F465C0083409F0B9C010930101B1
:10EFB0006EC00B3409F48FC00C3409F0B0C010934C
:10EFC0000A019CC011B98091C00087FDB2CD82B109
:10EFD000809582B988EC90E00F94C0F1F4CF8091D5
:10EFE000C00087FD08C085B1809585B988EC90E0A8
:10EFF0000F94C0F1F4CF15B89DCD17B98091C00022
:10F0000087FD08C088B1809588B988EC90E00F949E
:10F01000C0F1F4CF18B88ECD1AB98091C00087FD29
:10F0200008C08BB180958BB988EC90E00F94C0F14B
:10F03000F4CF1BB87FCD8091C00087FD08C08EB192
:10F0400080958EB988EC90E00F94C0F1F4CF1EB893
:10F0500071CD10BB8091C00087FD08C081B3809541
:10F0600081BB88EC90E00F94C0F1F4CF11BA62CD6F
:10F0700013BB8091C00087FD08C084B3809584BB1A
:10F0800088EC90E00F94C0F1F4CF14BA53CD809186
:10F09000C00087FD0AC08091020180958093020123
:10F0A00088EC90E00F94C0F1F2CF1092020142CDB3
:10F0B000109304018091C00087FD0AC08091050172
:10F0C00080958093050188EC90E00F94C0F1F2CF19
:10F0D000109205012FCD109307018091C00087FD8C
:10F0E0000AC08091080180958093080188EC90E027
:10F0F0000F94C0F1F2CF109208011CCD8091C00096
:10F1000087FD0AC080910B01809580930B0188ECEC
:10F1100090E00F94C0F1F2CF10920B010BCD60E0A4
:10F120008EEB91EE07C060E08DEA91EE03C060E0E7
:10F1300085ED92EE0F94E9F145CB833029F120F46F
:10F14000813099F050F017C0853089F118F1863080
:10F1500009F060C0E12CF12C5AC0E12CF12C9B315C
:10F1600009F461C200E010E0C4CAE12CF12CB92618
:10F17000692E82E0F7CFE12CF12C292F30E0322FDD
:10F180002227B92683E0EECFE12CF12C292BB926DA
:10F1900084E0E8CF9E3009F04AC2B926E12CF12C78
:10F1A000CA5DDE4F19821882C652D14022C0E12CBE
:10F1B000F12CCA5DDE4F48815981C652D1404F5F64
:10F1C0005F4FE1E0F0E0EC0FFD1FCA5DDE4FA8816C
:10F1D000B981C652D140EA0FFB1F9083B92642176E
:10F1E000530709F427C2CA5DDE4F59834883C652CC
:10F1F000D14085E0B7CFE12CF12C833039F208F40F
:10F2000021C28530B1F208F422C2863029F49B1164
:10F210001EC205C0E12CF12C873009F0A3CF712C60
:10F220002981233109F4D8C060F5263009F4C6C01D
:10F23000F8F4223009F4CEC0233009F464C0213040
:10F2400009F0A8C11A8288E08B8381E48C8386E56B
:10F250008D8382E58E8389E48F8383E5888780E5CB
:10F2600089878FE58A8782E38B870BE010E096C160
:10F27000213109F455C008F094C0203109F4AAC026
:10F2800089C1283109F466C048F4253109F4A4C0C5
:10F2900008F430C1263109F42DC17CC12A3109F4AA
:10F2A0004DC008F46DC02B3109F43DC02D3109F07B
:10F2B00071C19D81903339F48F818823B1F0813001
:10F2C000B1F488E917C0892F807599F0903521F441
:10F2D00089E0E0E0F0E005C0983559F489E0E3E02A
:10F2E000F0E080935700849105C08EE103C081E077
:10F2F00001C080E01A821B829C831D828E831F8244
:10F3000007E010E04BC1EA81E059E33028F4F0E077
:10F31000E050FE4F808101C080E01A828B833EC0A6
:10F320007724739457C08D81882321F0813021F494
:10F3300088E924C08EE122C081E020C01A82E1E089
:10F34000F0E089E08093570084918B831C8204E075
:10F3500010E024C18B81803559F48C81883021F4F0
:10F36000E2E0F0E089E007C089E0E0E0F0E003C01F
:10F3700089E0E3E0F0E08093570084911A82E5CFC2
:10F380008D81836C99E0E1E0F0E0082E90935700C6
:10F39000E89507B600FCFDCF1A821B8203E010E05F
:10F3A000FDC080EC8A8302E010E0CE5DDE4F188263
:10F3B00019821A821B82C252D140F0C06A817B81BD
:10F3C0008C819D810F945FFB1B012C01220C331C4F
:10F3D000441C551C1A82E0C0CA80DB80DC24CD248A
:10F3E000DC24233109F05DC0CE5DDE4F28813981F8
:10F3F0004A815B81C252D140211560EC360763E03F
:10F4000046075105E8F483E0F90140935B008093DF
:10F410005700E89507B600FCFDCFCE5DDE4F888132
:10F420009981AA81BB81C252D1409F5FAF4FBF4F2C
:10F43000CE5DDE4F88839983AA83BB83C252D140BD
:10F440008B85DE0111969201810141E01B965C9152
:10F450001B9790E0952B0C01F80120935B004093E3
:10F460005700E89511240E5F1F4F2F4F3F4F92E03A
:10F47000C91AD1081296C114D10421F01A968C91A0
:10F480001A97E4CFA5E0F10140925B00A0935700EA
:10F49000E89507B600FCFDCF81E180935700E89521
:10F4A00025C0D201C101B695A795979587955C01B6
:10F4B0004E01BBE08B0E911C00E010E00C151D0509
:10F4C00059F0F40161914F01C8018A0D9B1D0F9401
:10F4D00082FB0F5F1F4FF2CF20E030E0000F111FC3
:10F4E000221F331F020D131D241D351D1A82180102
:10F4F000290152C08A819B819827892798278C01EE
:10F500000D5F1F4F1A822431C1F4DE0111964BBEEC
:10F51000F1012791369112962C931297FD013496A2
:10F5200013963C93139722E0220E311C411C511C70
:10F5300002971296009759F72BC0FE0131969F0152
:10F54000280F391FB201A10141BD852E962EA72E8D
:10F55000BB2482BC4F5F5F4F6F4F7F4FF89AA0B5BF
:10F56000A2833196E217F30779F7AC0141505109B4
:10F5700060E070E04F5F5F4F6F4F7F4F240E351E8E
:10F58000461E571EE3E0F0E0EC0FFD1FE80FF91FE9
:10F59000108204C080EC8A8302E010E08BE10F94BB
:10F5A000B4F1862D0F94B4F1812F0F94B4F1802F14
:10F5B0000F94B4F185E1B62CB826B0268EE00F94F6
:10F5C000B4F1B126AE014F5F5F4F6A01040F151F02
:10F5D000C016D10641F0D601AD906D018A2D0F9471
:10F5E000B4F1BA24F5CF8B2D0F94B4F1639485B1A7
:10F5F000805885B900E010E0772009F477C8279893
:10F600002F9884E690E00F94C0F100008091C00034
:10F610008D7F8093C00081E180935700E895EE27AD
:10F62000FF270994FFCF8BE1B82E81E09BCDE12C21
:10F63000F12C0DC0CA5DDE4F39832883C652D140FC
:10F6400086E090CD813009F492CD08F096CD80E02F
:10F6500089CD97FB072E16F4009407D077FD09D0CB
:10F660000F9466FB07FC05D03EF4909581959F4F63
:10F670000895709561957F4F0895A1E21A2EAA1BF7
:10F68000BB1BFD010DC0AA1FBB1FEE1FFF1FA21752
:10F69000B307E407F50720F0A21BB30BE40BF50B4F
:10F6A000661F771F881F991F1A9469F760957095D8
:10F6B000809590959B01AC01BD01CF01089569270C
:10F6C000962769277827872778270895AA1BBB1BC9
:10F6D00051E107C0AA1FBB1FA617B70710F0A61B52
:10F6E000B70B881F991F5A95A9F780959095BC0173
:10F6F000CD010895F999FECF92BD81BDF89A992761
:10F7000080B50895262FF999FECF1FBA92BD81BD0D
:10F7100020BD0FB6F894FA9AF99A0FBE0196089593
:04F72000F894FFCF8B
:04F724000F020A00C6
:040000033000E000E9
:00000001FF
